{
  "contractName": "Audit",
  "abi": [
    {
      "constant": false,
      "inputs": [
        {
          "name": "_auditor",
          "type": "address"
        }
      ],
      "name": "addAuditor",
      "outputs": [
        {
          "name": "",
          "type": "bool"
        }
      ],
      "payable": false,
      "stateMutability": "nonpayable",
      "type": "function"
    },
    {
      "constant": false,
      "inputs": [
        {
          "name": "bidID",
          "type": "uint256"
        },
        {
          "name": "status",
          "type": "bool"
        },
        {
          "name": "reportSHA256hash",
          "type": "string"
        }
      ],
      "name": "logAuditReport",
      "outputs": [
        {
          "name": "_bidID",
          "type": "uint256"
        },
        {
          "name": "_status",
          "type": "bool"
        },
        {
          "name": "_auditor",
          "type": "address"
        },
        {
          "name": "_reportSHA256hash",
          "type": "string"
        }
      ],
      "payable": false,
      "stateMutability": "nonpayable",
      "type": "function"
    },
    {
      "constant": false,
      "inputs": [
        {
          "name": "bidID",
          "type": "uint256"
        }
      ],
      "name": "getAuditReport",
      "outputs": [
        {
          "name": "_reportSHA256hash",
          "type": "string"
        },
        {
          "name": "_status",
          "type": "bool"
        }
      ],
      "payable": false,
      "stateMutability": "nonpayable",
      "type": "function"
    }
  ],
  "bytecode": "0x60806040526000805560018055600280556003805534801561002057600080fd5b50610548806100306000396000f300608060405260043610610057576000357c0100000000000000000000000000000000000000000000000000000000900463ffffffff168063e429cef11461005c578063ed846f75146100b7578063f8031e90146101f4575b600080fd5b34801561006857600080fd5b5061009d600480360381019080803573ffffffffffffffffffffffffffffffffffffffff1690602001909291905050506102a5565b604051808215151515815260200191505060405180910390f35b3480156100c357600080fd5b5061013460048036038101908080359060200190929190803515159060200190929190803590602001908201803590602001908080601f0160208091040260200160405190810160405280939291908181526020018383808284378201915050505050509192919290505050610316565b60405180858152602001841515151581526020018373ffffffffffffffffffffffffffffffffffffffff1673ffffffffffffffffffffffffffffffffffffffff16815260200180602001828103825283818151815260200191508051906020019080838360005b838110156101b657808201518184015260208101905061019b565b50505050905090810190601f1680156101e35780820380516001836020036101000a031916815260200191505b509550505050505060405180910390f35b34801561020057600080fd5b5061021f600480360381019080803590602001909291905050506103ba565b604051808060200183151515158152602001828103825284818151815260200191508051906020019080838360005b8381101561026957808201518184015260208101905061024e565b50505050905090810190601f1680156102965780820380516001836020036101000a031916815260200191505b50935050505060405180910390f35b600060098290806001815401808255809150509060018203906000526020600020016000909192909190916101000a81548173ffffffffffffffffffffffffffffffffffffffff021916908373ffffffffffffffffffffffffffffffffffffffff1602179055505060019050919050565b6000806000606084600a60008981526020019081526020016000209080519060200190610344929190610477565b5085600b600089815260200190815260200160002060006101000a81548160ff02191690831515021790555033600c60006101000a81548173ffffffffffffffffffffffffffffffffffffffff021916908373ffffffffffffffffffffffffffffffffffffffff16021790555093509350935093565b60606000600a60008481526020019081526020016000208054600181600116156101000203166002900480601f0160208091040260200160405190810160405280929190818152602001828054600181600116156101000203166002900480156104655780601f1061043a57610100808354040283529160200191610465565b820191906000526020600020905b81548152906001019060200180831161044857829003601f168201915b50505050509150818191509150915091565b828054600181600116156101000203166002900490600052602060002090601f016020900481019282601f106104b857805160ff19168380011785556104e6565b828001600101855582156104e6579182015b828111156104e55782518255916020019190600101906104ca565b5b5090506104f391906104f7565b5090565b61051991905b808211156105155760008160009055506001016104fd565b5090565b905600a165627a7a7230582010c72edd988bc8317e73b4ff9fb0eff1e12a9e5d4af11bb2e5f69aa1283ab0030029",
  "source": "pragma solidity >=0.4.22;\r\n\r\nimport \"./RFP.sol\";\r\nimport \"./Users.sol\";\r\n\r\ncontract Audit is Utils {\r\n    address owner;\r\n\r\n    address[] auditors;\r\n    mapping (uint => string) reports;\r\n    mapping (uint => bool) audit_status;\r\n\r\n    address auditor_address;\r\n\r\n    function addAuditor(address _auditor) public returns (bool) \r\n    // modifier: only allowed to owner\r\n    { \r\n        auditors.push(_auditor);\r\n        return true;\r\n    }\r\n\r\n    function logAuditReport(uint bidID, bool status, string reportSHA256hash) public returns (uint _bidID, bool _status ,address _auditor, string _reportSHA256hash)\r\n    {\r\n        reports[bidID] = reportSHA256hash;\r\n        audit_status[bidID] = status;\r\n        auditor_address = msg.sender;\r\n        //return (bidID, audit_status[bId], auditor_address, reportSHA256hash);\r\n    }\r\n    \r\n    function getAuditReport(uint bidID) public returns (string _reportSHA256hash, bool _status){\r\n        _reportSHA256hash = reports[bidID];\r\n        return (_reportSHA256hash, _status);\r\n    }\r\n\r\n}\r\n",
  "sourcePath": "/home/dev/Documents/conduentHackathon-safe/truffle/contracts/Audit.sol",
  "compiler": {
    "name": "solc",
    "version": "0.4.25+commit.59dbf8f1.Emscripten.clang"
  },
  "schemaVersion": "2.0.2",
  "updatedAt": "2019-06-23T02:31:29.941Z"
}