{
  "contractName": "Bidder",
  "abi": [
    {
      "constant": true,
      "inputs": [
        {
          "name": "",
          "type": "uint256"
        }
      ],
      "name": "bids",
      "outputs": [
        {
          "name": "bidder",
          "type": "address"
        },
        {
          "name": "bidPrice",
          "type": "uint256"
        },
        {
          "name": "bidID",
          "type": "string"
        },
        {
          "name": "RFPBidLastDate",
          "type": "uint64"
        },
        {
          "name": "propsedCompletionDate",
          "type": "uint64"
        },
        {
          "name": "c1_DocHash",
          "type": "string"
        },
        {
          "name": "c1_CID",
          "type": "string"
        },
        {
          "name": "t1_DocsHash",
          "type": "string"
        },
        {
          "name": "t1_CID",
          "type": "string"
        },
        {
          "name": "BidStatus",
          "type": "uint16"
        }
      ],
      "payable": false,
      "stateMutability": "view",
      "type": "function"
    },
    {
      "inputs": [
        {
          "name": "_rfp",
          "type": "address"
        }
      ],
      "payable": false,
      "stateMutability": "nonpayable",
      "type": "constructor"
    },
    {
      "constant": false,
      "inputs": [
        {
          "name": "RFPAddress",
          "type": "address"
        },
        {
          "name": "bidID",
          "type": "string"
        },
        {
          "name": "propsedCompletionDate",
          "type": "uint64"
        },
        {
          "name": "c1_DocHash",
          "type": "string"
        },
        {
          "name": "t1_DocsHash",
          "type": "string"
        }
      ],
      "name": "bidForRFP",
      "outputs": [],
      "payable": false,
      "stateMutability": "nonpayable",
      "type": "function"
    },
    {
      "constant": false,
      "inputs": [
        {
          "name": "bidID",
          "type": "string"
        },
        {
          "name": "_bidPrice",
          "type": "uint256"
        },
        {
          "name": "_c1CID",
          "type": "string"
        },
        {
          "name": "_t1CID",
          "type": "string"
        }
      ],
      "name": "declareBidPriceAnd_C1T1",
      "outputs": [],
      "payable": false,
      "stateMutability": "nonpayable",
      "type": "function"
    },
    {
      "constant": false,
      "inputs": [
        {
          "name": "_bidID",
          "type": "string"
        }
      ],
      "name": "getBidByBidID",
      "outputs": [
        {
          "name": "",
          "type": "address"
        },
        {
          "name": "",
          "type": "uint256"
        },
        {
          "name": "",
          "type": "string"
        },
        {
          "name": "",
          "type": "uint64"
        },
        {
          "name": "",
          "type": "uint64"
        },
        {
          "name": "",
          "type": "string"
        },
        {
          "name": "",
          "type": "string"
        },
        {
          "name": "",
          "type": "string"
        },
        {
          "name": "",
          "type": "string"
        },
        {
          "name": "",
          "type": "uint16"
        }
      ],
      "payable": false,
      "stateMutability": "nonpayable",
      "type": "function"
    }
  ],
  "bytecode": "0x60806040526000805560018055600280556003805534801561002057600080fd5b506040516020806119218339810180604052810190808051906020019092919050505080600860006101000a81548173ffffffffffffffffffffffffffffffffffffffff021916908373ffffffffffffffffffffffffffffffffffffffff1602179055505061188d806100946000396000f300608060405260043610610062576000357c0100000000000000000000000000000000000000000000000000000000900463ffffffff1680634423c5f1146100675780637ecd1f871461033c5780638f5b085f1461043b578063a22b19be14610564575b600080fd5b34801561007357600080fd5b5061009260048036038101908080359060200190929190505050610875565b604051808b73ffffffffffffffffffffffffffffffffffffffff1673ffffffffffffffffffffffffffffffffffffffff1681526020018a8152602001806020018967ffffffffffffffff1667ffffffffffffffff1681526020018867ffffffffffffffff1667ffffffffffffffff168152602001806020018060200180602001806020018761ffff1661ffff16815260200186810386528e818151815260200191508051906020019080838360005b8381101561015c578082015181840152602081019050610141565b50505050905090810190601f1680156101895780820380516001836020036101000a031916815260200191505b5086810385528b818151815260200191508051906020019080838360005b838110156101c25780820151818401526020810190506101a7565b50505050905090810190601f1680156101ef5780820380516001836020036101000a031916815260200191505b5086810384528a818151815260200191508051906020019080838360005b8381101561022857808201518184015260208101905061020d565b50505050905090810190601f1680156102555780820380516001836020036101000a031916815260200191505b50868103835289818151815260200191508051906020019080838360005b8381101561028e578082015181840152602081019050610273565b50505050905090810190601f1680156102bb5780820380516001836020036101000a031916815260200191505b50868103825288818151815260200191508051906020019080838360005b838110156102f45780820151818401526020810190506102d9565b50505050905090810190601f1680156103215780820380516001836020036101000a031916815260200191505b509f5050505050505050505050505050505060405180910390f35b34801561034857600080fd5b50610439600480360381019080803590602001908201803590602001908080601f016020809104026020016040519081016040528093929190818152602001838380828437820191505050505050919291929080359060200190929190803590602001908201803590602001908080601f0160208091040260200160405190810160405280939291908181526020018383808284378201915050505050509192919290803590602001908201803590602001908080601f0160208091040260200160405190810160405280939291908181526020018383808284378201915050505050509192919290505050610c26565b005b34801561044757600080fd5b50610562600480360381019080803573ffffffffffffffffffffffffffffffffffffffff169060200190929190803590602001908201803590602001908080601f0160208091040260200160405190810160405280939291908181526020018383808284378201915050505050509192919290803567ffffffffffffffff169060200190929190803590602001908201803590602001908080601f0160208091040260200160405190810160405280939291908181526020018383808284378201915050505050509192919290803590602001908201803590602001908080601f0160208091040260200160405190810160405280939291908181526020018383808284378201915050505050509192919290505050610dad565b005b34801561057057600080fd5b506105cb600480360381019080803590602001908201803590602001908080601f01602080910402602001604051908101604052809392919081815260200183838082843782019150505050505091929192905050506111b5565b604051808b73ffffffffffffffffffffffffffffffffffffffff1673ffffffffffffffffffffffffffffffffffffffff1681526020018a8152602001806020018967ffffffffffffffff1667ffffffffffffffff1681526020018867ffffffffffffffff1667ffffffffffffffff168152602001806020018060200180602001806020018761ffff1661ffff16815260200186810386528e818151815260200191508051906020019080838360005b8381101561069557808201518184015260208101905061067a565b50505050905090810190601f1680156106c25780820380516001836020036101000a031916815260200191505b5086810385528b818151815260200191508051906020019080838360005b838110156106fb5780820151818401526020810190506106e0565b50505050905090810190601f1680156107285780820380516001836020036101000a031916815260200191505b5086810384528a818151815260200191508051906020019080838360005b83811015610761578082015181840152602081019050610746565b50505050905090810190601f16801561078e5780820380516001836020036101000a031916815260200191505b50868103835289818151815260200191508051906020019080838360005b838110156107c75780820151818401526020810190506107ac565b50505050905090810190601f1680156107f45780820380516001836020036101000a031916815260200191505b50868103825288818151815260200191508051906020019080838360005b8381101561082d578082015181840152602081019050610812565b50505050905090810190601f16801561085a5780820380516001836020036101000a031916815260200191505b509f5050505050505050505050505050505060405180910390f35b60098181548110151561088457fe5b90600052602060002090600902016000915090508060000160009054906101000a900473ffffffffffffffffffffffffffffffffffffffff1690806001015490806002018054600181600116156101000203166002900480601f01602080910402602001604051908101604052809291908181526020018280546001816001161561010002031660029004801561095c5780601f106109315761010080835404028352916020019161095c565b820191906000526020600020905b81548152906001019060200180831161093f57829003601f168201915b5050505050908060030160009054906101000a900467ffffffffffffffff16908060030160089054906101000a900467ffffffffffffffff1690806004018054600181600116156101000203166002900480601f016020809104026020016040519081016040528092919081815260200182805460018160011615610100020316600290048015610a2e5780601f10610a0357610100808354040283529160200191610a2e565b820191906000526020600020905b815481529060010190602001808311610a1157829003601f168201915b505050505090806005018054600181600116156101000203166002900480601f016020809104026020016040519081016040528092919081815260200182805460018160011615610100020316600290048015610acc5780601f10610aa157610100808354040283529160200191610acc565b820191906000526020600020905b815481529060010190602001808311610aaf57829003601f168201915b505050505090806006018054600181600116156101000203166002900480601f016020809104026020016040519081016040528092919081815260200182805460018160011615610100020316600290048015610b6a5780601f10610b3f57610100808354040283529160200191610b6a565b820191906000526020600020905b815481529060010190602001808311610b4d57829003601f168201915b505050505090806007018054600181600116156101000203166002900480601f016020809104026020016040519081016040528092919081815260200182805460018160011615610100020316600290048015610c085780601f10610bdd57610100808354040283529160200191610c08565b820191906000526020600020905b815481529060010190602001808311610beb57829003601f168201915b5050505050908060080160009054906101000a900461ffff1690508a565b82600c856040518082805190602001908083835b602083101515610c5f5780518252602082019150602081019050602083039250610c3a565b6001836020036101000a03801982511681845116808217855250505050505090500191505090815260200160405180910390206001018190555081600c856040518082805190602001908083835b602083101515610cd25780518252602082019150602081019050602083039250610cad565b6001836020036101000a03801982511681845116808217855250505050505090500191505090815260200160405180910390206005019080519060200190610d1b9291906116ba565b50610834600c856040518082805190602001908083835b602083101515610d575780518252602082019150602081019050602083039250610d32565b6001836020036101000a038019825116818451168082178552505050505050905001915050908152602001604051809103902060080160006101000a81548161ffff021916908361ffff16021790555050505050565b610db561173a565b33816000019073ffffffffffffffffffffffffffffffffffffffff16908173ffffffffffffffffffffffffffffffffffffffff168152505084816040018190525083816080019067ffffffffffffffff16908167ffffffffffffffff1681525050828160a00181905250818160e001819052506107d081610120019061ffff16908161ffff168152505080600c82604001516040518082805190602001908083835b602083101515610e7c5780518252602082019150602081019050602083039250610e57565b6001836020036101000a038019825116818451168082178552505050505050905001915050908152602001604051809103902060008201518160000160006101000a81548173ffffffffffffffffffffffffffffffffffffffff021916908373ffffffffffffffffffffffffffffffffffffffff160217905550602082015181600101556040820151816002019080519060200190610f1c9291906117bc565b5060608201518160030160006101000a81548167ffffffffffffffff021916908367ffffffffffffffff16021790555060808201518160030160086101000a81548167ffffffffffffffff021916908367ffffffffffffffff16021790555060a0820151816004019080519060200190610f979291906117bc565b5060c0820151816005019080519060200190610fb49291906117bc565b5060e0820151816006019080519060200190610fd19291906117bc565b50610100820151816007019080519060200190610fef9291906117bc565b506101208201518160080160006101000a81548161ffff021916908361ffff1602179055509050506009819080600181540180825580915050906001820390600052602060002090600902016000909192909190915060008201518160000160006101000a81548173ffffffffffffffffffffffffffffffffffffffff021916908373ffffffffffffffffffffffffffffffffffffffff1602179055506020820151816001015560408201518160020190805190602001906110b29291906117bc565b5060608201518160030160006101000a81548167ffffffffffffffff021916908367ffffffffffffffff16021790555060808201518160030160086101000a81548167ffffffffffffffff021916908367ffffffffffffffff16021790555060a082015181600401908051906020019061112d9291906117bc565b5060c082015181600501908051906020019061114a9291906117bc565b5060e08201518160060190805190602001906111679291906117bc565b506101008201518160070190805190602001906111859291906117bc565b506101208201518160080160006101000a81548161ffff021916908361ffff160217905550505050505050505050565b600080606060008060608060608060006111cd61173a565b600c8c6040518082805190602001908083835b60208310151561120557805182526020820191506020810190506020830392506111e0565b6001836020036101000a038019825116818451168082178552505050505050905001915050908152602001604051809103902061014060405190810160405290816000820160009054906101000a900473ffffffffffffffffffffffffffffffffffffffff1673ffffffffffffffffffffffffffffffffffffffff1673ffffffffffffffffffffffffffffffffffffffff16815260200160018201548152602001600282018054600181600116156101000203166002900480601f01602080910402602001604051908101604052809291908181526020018280546001816001161561010002031660029004801561133e5780601f106113135761010080835404028352916020019161133e565b820191906000526020600020905b81548152906001019060200180831161132157829003601f168201915b505050505081526020016003820160009054906101000a900467ffffffffffffffff1667ffffffffffffffff1667ffffffffffffffff1681526020016003820160089054906101000a900467ffffffffffffffff1667ffffffffffffffff1667ffffffffffffffff168152602001600482018054600181600116156101000203166002900480601f0160208091040260200160405190810160405280929190818152602001828054600181600116156101000203166002900480156114445780601f1061141957610100808354040283529160200191611444565b820191906000526020600020905b81548152906001019060200180831161142757829003601f168201915b50505050508152602001600582018054600181600116156101000203166002900480601f0160208091040260200160405190810160405280929190818152602001828054600181600116156101000203166002900480156114e65780601f106114bb576101008083540402835291602001916114e6565b820191906000526020600020905b8154815290600101906020018083116114c957829003601f168201915b50505050508152602001600682018054600181600116156101000203166002900480601f0160208091040260200160405190810160405280929190818152602001828054600181600116156101000203166002900480156115885780601f1061155d57610100808354040283529160200191611588565b820191906000526020600020905b81548152906001019060200180831161156b57829003601f168201915b50505050508152602001600782018054600181600116156101000203166002900480601f01602080910402602001604051908101604052809291908181526020018280546001816001161561010002031660029004801561162a5780601f106115ff5761010080835404028352916020019161162a565b820191906000526020600020905b81548152906001019060200180831161160d57829003601f168201915b505050505081526020016008820160009054906101000a900461ffff1661ffff1661ffff16815250509050806000015181602001518260400151836060015184608001518560a001518660c001518760e001518861010001518961012001518797508494508393508292508191509a509a509a509a509a509a509a509a509a509a50509193959799509193959799565b828054600181600116156101000203166002900490600052602060002090601f016020900481019282601f106116fb57805160ff1916838001178555611729565b82800160010185558215611729579182015b8281111561172857825182559160200191906001019061170d565b5b509050611736919061183c565b5090565b61014060405190810160405280600073ffffffffffffffffffffffffffffffffffffffff1681526020016000815260200160608152602001600067ffffffffffffffff168152602001600067ffffffffffffffff16815260200160608152602001606081526020016060815260200160608152602001600061ffff1681525090565b828054600181600116156101000203166002900490600052602060002090601f016020900481019282601f106117fd57805160ff191683800117855561182b565b8280016001018555821561182b579182015b8281111561182a57825182559160200191906001019061180f565b5b509050611838919061183c565b5090565b61185e91905b8082111561185a576000816000905550600101611842565b5090565b905600a165627a7a72305820c37bd5d1b89037c24d1ef5159ea0c448d98f53384fd529dc8d9bfa9f072264c00029",
  "source": "pragma solidity ^0.4.22;\n\nimport \"./Utils.sol\";\nimport \"./RFP.sol\";\n\n\ncontract Bidder is Utils {\n    RFP rfp;\n\n    struct Bid {\n        address bidder;\n        // only should be put back here after the bid deadline crossed\n        uint bidPrice;\n\n        string bidID;\n        uint64 RFPBidLastDate;\n\n        uint64 propsedCompletionDate;\n        string c1_DocHash;\n        string c1_CID;\n        //string c1_CID_Shared;\n        string t1_DocsHash;\n        string t1_CID;\n        //string t1_CID_Shared;\n\n        uint16 BidStatus;\n        // uint voteCount;\n\n    }\n\n    Bid[] public bids;\n\n    // function recieveAVote(address recievedFrom, address bidPlacedBy, string bidId)\n    // public {\n    //     bidsPlaced[bidPlacedBy].voteCount++;\n    // }\n\n    mapping(address => Bid) bidsPlaced;\n\n    \n    mapping(uint16 => string) BidStatusString;\n    mapping (string => Bid) bidsByBidId;\n\n    constructor (address _rfp) public {\n        rfp = RFP(_rfp);\n            \n        // BidStatusString[PLACED_NOT_DECLARED] = \"PLACED NOT DECLARED\";\n        // BidStatusString[PLACED_AND_DECLARED] = \"PLACED AND DECLARED\";\n        // BidStatusString[PLACED_WON_TENDER]   = \"PLACED WON TENDER\";\n    }\n\n    function bidForRFP(\n        // string bidPriceHASH,\n        address RFPAddress,\n\n        string bidID,\n\n        uint64 propsedCompletionDate,\n        string memory c1_DocHash,\n        string memory t1_DocsHash\n    )\n    public\n    // modifier: all input data should be valid\n    // modifier: only if the RFP is ACTIVE state\n    // modifier: only if the bidder's KYC in accepted\n    {\n        Bid memory bid;\n\n        bid.bidder = msg.sender;\n        bid.bidID = bidID;\n        bid.propsedCompletionDate = propsedCompletionDate;\n        bid.c1_DocHash = c1_DocHash;\n        bid.t1_DocsHash = t1_DocsHash;\n\n        bid.BidStatus=PLACED_NOT_DECLARED;\n        \n        // bidCount++;\n\n        bidsByBidId[bid.bidID] = bid;\n        bids.push(bid);\n    }\n\n    function declareBidPriceAnd_C1T1(\n        string bidID,\n        uint _bidPrice,\n        string _c1CID, \n      //  string _c1CID_Shared,\n        string _t1CID\n      //  string _t1CID_Shared\n    )\n    public\n    // modifier: check the bidId belongs to same account\n    // modifier: check the sanity of all input\n    // modifier: check that the bid end date is over\n    {\n        bidsByBidId[bidID].bidPrice  = _bidPrice;\n        bidsByBidId[bidID].c1_CID= _c1CID;\n       // bidsByBidId[bidID].c1_CID_Shared = _c1CID_Shared;\n\n       // bidsByBidId[bidID].t1_CID = _t1CID;\n      //  bidsByBidId[bidID].t1_CID_Shared = _t1CID_Shared;\n        bidsByBidId[bidID].BidStatus=PLACED_AND_DECLARED;\n    }\n\n    function getBidByBidID(string _bidID)\n    public\n    // modifier: check invalid ids\n    returns (\n        address,\n        uint,\n        string,\n        uint64,\n        uint64,\n        string,\n        string,\n        string,\n        string,\n        uint16\n\n    )\n    {\n        Bid memory _bid = bidsByBidId[_bidID];\n        return (\n            _bid.bidder,\n            _bid.bidPrice,\n            _bid.bidID,\n            _bid.RFPBidLastDate,\n            _bid.propsedCompletionDate,\n            _bid.c1_DocHash,\n            _bid.c1_CID,\n          //  _bid.c1_CID_Shared,\n            _bid.t1_DocsHash,\n            _bid.t1_CID,\n      //      _bid.t1_CID_Shared,\n\n            _bid.BidStatus\n        );\n    }\n}",
  "sourcePath": "/home/dev/Documents/conduentHackathon-safe/truffle/contracts/Bidder.sol",
  "compiler": {
    "name": "solc",
    "version": "0.4.25+commit.59dbf8f1.Emscripten.clang"
  },
  "schemaVersion": "2.0.2",
  "updatedAt": "2019-06-23T02:31:29.951Z"
}