{
  "contractName": "Document",
  "abi": [
    {
      "inputs": [],
      "payable": false,
      "stateMutability": "nonpayable",
      "type": "constructor"
    },
    {
      "anonymous": false,
      "inputs": [
        {
          "indexed": false,
          "name": "_docHash",
          "type": "string"
        },
        {
          "indexed": false,
          "name": "_docType",
          "type": "uint8"
        },
        {
          "indexed": false,
          "name": "_validThroughDate",
          "type": "uint64"
        },
        {
          "indexed": false,
          "name": "_varifyingAuthorityID",
          "type": "string"
        },
        {
          "indexed": false,
          "name": "_varifiedBy",
          "type": "address"
        },
        {
          "indexed": false,
          "name": "_varifactionDate",
          "type": "uint64"
        },
        {
          "indexed": false,
          "name": "_submittedBy",
          "type": "address"
        },
        {
          "indexed": false,
          "name": "_submitionDate",
          "type": "uint64"
        },
        {
          "indexed": false,
          "name": "_status",
          "type": "uint8"
        },
        {
          "indexed": false,
          "name": "_comment",
          "type": "string"
        }
      ],
      "name": "DocumentCreated",
      "type": "event"
    },
    {
      "constant": false,
      "inputs": [
        {
          "name": "_code",
          "type": "uint8"
        },
        {
          "name": "_docConcern",
          "type": "string"
        }
      ],
      "name": "addDocConcernString32ByCode",
      "outputs": [],
      "payable": false,
      "stateMutability": "nonpayable",
      "type": "function"
    },
    {
      "constant": false,
      "inputs": [
        {
          "name": "docTypeCode",
          "type": "uint8"
        },
        {
          "name": "docTypeString",
          "type": "string"
        }
      ],
      "name": "addADocType",
      "outputs": [],
      "payable": false,
      "stateMutability": "nonpayable",
      "type": "function"
    },
    {
      "constant": false,
      "inputs": [
        {
          "name": "_docHash",
          "type": "string"
        },
        {
          "name": "_docType",
          "type": "uint8"
        },
        {
          "name": "_validThroughDate",
          "type": "uint64"
        },
        {
          "name": "_varifyingAuthorityID",
          "type": "string"
        },
        {
          "name": "_varifiedBy",
          "type": "address"
        },
        {
          "name": "_varifactionDate",
          "type": "uint64"
        },
        {
          "name": "_belongsTo",
          "type": "address"
        },
        {
          "name": "_submitionDate",
          "type": "uint64"
        },
        {
          "name": "_status",
          "type": "uint8"
        }
      ],
      "name": "createDocumentAsset",
      "outputs": [],
      "payable": false,
      "stateMutability": "nonpayable",
      "type": "function"
    },
    {
      "constant": false,
      "inputs": [
        {
          "name": "_docHash",
          "type": "string"
        }
      ],
      "name": "sendDocumentForVerification",
      "outputs": [],
      "payable": false,
      "stateMutability": "nonpayable",
      "type": "function"
    },
    {
      "constant": false,
      "inputs": [
        {
          "name": "_docHash",
          "type": "string"
        },
        {
          "name": "_authorityID",
          "type": "string"
        }
      ],
      "name": "verifiyDocument",
      "outputs": [],
      "payable": false,
      "stateMutability": "nonpayable",
      "type": "function"
    },
    {
      "constant": false,
      "inputs": [
        {
          "name": "_docHash",
          "type": "string"
        },
        {
          "name": "_concernCode",
          "type": "uint8"
        }
      ],
      "name": "returnWithAConern",
      "outputs": [],
      "payable": false,
      "stateMutability": "nonpayable",
      "type": "function"
    },
    {
      "constant": false,
      "inputs": [
        {
          "name": "_docHash",
          "type": "string"
        },
        {
          "name": "_concernCode",
          "type": "uint8"
        }
      ],
      "name": "rejectWithAReason",
      "outputs": [],
      "payable": false,
      "stateMutability": "nonpayable",
      "type": "function"
    },
    {
      "constant": false,
      "inputs": [
        {
          "name": "_docHash",
          "type": "string"
        }
      ],
      "name": "getDocumentByHash",
      "outputs": [
        {
          "name": "",
          "type": "string"
        },
        {
          "name": "",
          "type": "uint8"
        },
        {
          "name": "",
          "type": "uint64"
        },
        {
          "name": "",
          "type": "string"
        },
        {
          "name": "",
          "type": "address"
        },
        {
          "name": "",
          "type": "uint64"
        },
        {
          "name": "",
          "type": "address"
        },
        {
          "name": "",
          "type": "uint64"
        },
        {
          "name": "",
          "type": "uint8"
        },
        {
          "name": "comment",
          "type": "string"
        }
      ],
      "payable": false,
      "stateMutability": "nonpayable",
      "type": "function"
    },
    {
      "constant": false,
      "inputs": [
        {
          "name": "_docHash",
          "type": "string"
        }
      ],
      "name": "getDocumentStatusByHash",
      "outputs": [
        {
          "name": "",
          "type": "uint8"
        }
      ],
      "payable": false,
      "stateMutability": "nonpayable",
      "type": "function"
    }
  ],
  "bytecode": "0x60806040526000805560018055600280556003805534801561002057600080fd5b506119ac806100306000396000f300608060405260043610610099576000357c0100000000000000000000000000000000000000000000000000000000900463ffffffff1680631650e3041461009e5780631cdb2886146101145780635af7adeb1461025957806360d5a049146104e4578063656e83541461055a578063699170cf146105d0578063a11e2b7214610646578063ada7efae146106f5578063eca5db9a1461075e575b600080fd5b3480156100aa57600080fd5b50610112600480360381019080803560ff169060200190929190803590602001908201803590602001908080601f01602080910402602001604051908101604052809392919081815260200183838082843782019150505050505091929192905050506107e1565b005b34801561012057600080fd5b50610257600480360381019080803590602001908201803590602001908080601f0160208091040260200160405190810160405280939291908181526020018383808284378201915050505050509192919290803560ff169060200190929190803567ffffffffffffffff169060200190929190803590602001908201803590602001908080601f0160208091040260200160405190810160405280939291908181526020018383808284378201915050505050509192919290803573ffffffffffffffffffffffffffffffffffffffff169060200190929190803567ffffffffffffffff169060200190929190803573ffffffffffffffffffffffffffffffffffffffff169060200190929190803567ffffffffffffffff169060200190929190803560ff169060200190929190505050610848565b005b34801561026557600080fd5b506102c0600480360381019080803590602001908201803590602001908080601f0160208091040260200160405190810160405280939291908181526020018383808284378201915050505050509192919290505050610d15565b60405180806020018b60ff1660ff1681526020018a67ffffffffffffffff1667ffffffffffffffff168152602001806020018973ffffffffffffffffffffffffffffffffffffffff1673ffffffffffffffffffffffffffffffffffffffff1681526020018867ffffffffffffffff1667ffffffffffffffff1681526020018773ffffffffffffffffffffffffffffffffffffffff1673ffffffffffffffffffffffffffffffffffffffff1681526020018667ffffffffffffffff1667ffffffffffffffff1681526020018560ff1660ff1681526020018060200184810384528e818151815260200191508051906020019080838360005b838110156103d25780820151818401526020810190506103b7565b50505050905090810190601f1680156103ff5780820380516001836020036101000a031916815260200191505b5084810383528b818151815260200191508051906020019080838360005b8381101561043857808201518184015260208101905061041d565b50505050905090810190601f1680156104655780820380516001836020036101000a031916815260200191505b50848103825285818151815260200191508051906020019080838360005b8381101561049e578082015181840152602081019050610483565b50505050905090810190601f1680156104cb5780820380516001836020036101000a031916815260200191505b509d505050505050505050505050505060405180910390f35b3480156104f057600080fd5b50610558600480360381019080803560ff169060200190929190803590602001908201803590602001908080601f0160208091040260200160405190810160405280939291908181526020018383808284378201915050505050509192919290505050611169565b005b34801561056657600080fd5b506105ce600480360381019080803590602001908201803590602001908080601f0160208091040260200160405190810160405280939291908181526020018383808284378201915050505050509192919290803560ff16906020019092919050505061119b565b005b3480156105dc57600080fd5b50610644600480360381019080803590602001908201803590602001908080601f0160208091040260200160405190810160405280939291908181526020018383808284378201915050505050509192919290803560ff1690602001909291905050506112ce565b005b34801561065257600080fd5b506106f3600480360381019080803590602001908201803590602001908080601f0160208091040260200160405190810160405280939291908181526020018383808284378201915050505050509192919290803590602001908201803590602001908080601f0160208091040260200160405190810160405280939291908181526020018383808284378201915050505050509192919290505050611401565b005b34801561070157600080fd5b5061075c600480360381019080803590602001908201803590602001908080601f0160208091040260200160405190810160405280939291908181526020018383808284378201915050505050509192919290505050611620565b005b34801561076a57600080fd5b506107c5600480360381019080803590602001908201803590602001908080601f01602080910402602001604051908101604052809392919081815260200183838082843782019150505050505091929192905050506116ab565b604051808260ff1660ff16815260200191505060405180910390f35b6040805190810160405280601081526020017f446f63756d656e74204578706972656400000000000000000000000000000000815250600960008460ff1660ff1681526020019081526020016000209080519060200190610843929190611730565b505050565b610140604051908101604052808a81526020018960ff1681526020018867ffffffffffffffff1681526020018781526020018673ffffffffffffffffffffffffffffffffffffffff1681526020018567ffffffffffffffff1681526020018473ffffffffffffffffffffffffffffffffffffffff1681526020018367ffffffffffffffff168152602001600160ff1681526020016020604051908101604052806000815250815250600b8a6040518082805190602001908083835b6020831015156109285780518252602082019150602081019050602083039250610903565b6001836020036101000a038019825116818451168082178552505050505050905001915050908152602001604051809103902060008201518160000190805190602001906109779291906117b0565b5060208201518160010160006101000a81548160ff021916908360ff16021790555060408201518160010160016101000a81548167ffffffffffffffff021916908367ffffffffffffffff16021790555060608201518160020190805190602001906109e49291906117b0565b5060808201518160030160006101000a81548173ffffffffffffffffffffffffffffffffffffffff021916908373ffffffffffffffffffffffffffffffffffffffff16021790555060a08201518160030160146101000a81548167ffffffffffffffff021916908367ffffffffffffffff16021790555060c08201518160040160006101000a81548173ffffffffffffffffffffffffffffffffffffffff021916908373ffffffffffffffffffffffffffffffffffffffff16021790555060e08201518160040160146101000a81548167ffffffffffffffff021916908367ffffffffffffffff16021790555061010082015181600401601c6101000a81548160ff021916908360ff160217905550610120820151816005019080519060200190610b109291906117b0565b509050507fb9036c84d4ee2b0e5b82c7a0914f3049995d9e3d3fba993bdd7b35636f3113378989898989898989600160405180806020018a60ff1660ff1681526020018967ffffffffffffffff1667ffffffffffffffff168152602001806020018873ffffffffffffffffffffffffffffffffffffffff1673ffffffffffffffffffffffffffffffffffffffff1681526020018767ffffffffffffffff1667ffffffffffffffff1681526020018673ffffffffffffffffffffffffffffffffffffffff1673ffffffffffffffffffffffffffffffffffffffff1681526020018567ffffffffffffffff1667ffffffffffffffff1681526020018460ff1660ff1681526020018060200184810384528d818151815260200191508051906020019080838360005b83811015610c51578082015181840152602081019050610c36565b50505050905090810190601f168015610c7e5780820380516001836020036101000a031916815260200191505b5084810383528a818151815260200191508051906020019080838360005b83811015610cb7578082015181840152602081019050610c9c565b50505050905090810190601f168015610ce45780820380516001836020036101000a031916815260200191505b508481038252600081526020016020019c5050505050505050505050505060405180910390a1505050505050505050565b6060600080606060008060008060006060610d2e611830565b600b8c6040518082805190602001908083835b602083101515610d665780518252602082019150602081019050602083039250610d41565b6001836020036101000a03801982511681845116808217855250505050505090500191505090815260200160405180910390206101406040519081016040529081600082018054600181600116156101000203166002900480601f016020809104026020016040519081016040528092919081815260200182805460018160011615610100020316600290048015610e3f5780601f10610e1457610100808354040283529160200191610e3f565b820191906000526020600020905b815481529060010190602001808311610e2257829003601f168201915b505050505081526020016001820160009054906101000a900460ff1660ff1660ff1681526020016001820160019054906101000a900467ffffffffffffffff1667ffffffffffffffff1667ffffffffffffffff168152602001600282018054600181600116156101000203166002900480601f016020809104026020016040519081016040528092919081815260200182805460018160011615610100020316600290048015610f305780601f10610f0557610100808354040283529160200191610f30565b820191906000526020600020905b815481529060010190602001808311610f1357829003601f168201915b505050505081526020016003820160009054906101000a900473ffffffffffffffffffffffffffffffffffffffff1673ffffffffffffffffffffffffffffffffffffffff1673ffffffffffffffffffffffffffffffffffffffff1681526020016003820160149054906101000a900467ffffffffffffffff1667ffffffffffffffff1667ffffffffffffffff1681526020016004820160009054906101000a900473ffffffffffffffffffffffffffffffffffffffff1673ffffffffffffffffffffffffffffffffffffffff1673ffffffffffffffffffffffffffffffffffffffff1681526020016004820160149054906101000a900467ffffffffffffffff1667ffffffffffffffff1667ffffffffffffffff16815260200160048201601c9054906101000a900460ff1660ff1660ff168152602001600582018054600181600116156101000203166002900480601f0160208091040260200160405190810160405280929190818152602001828054600181600116156101000203166002900480156110ff5780601f106110d4576101008083540402835291602001916110ff565b820191906000526020600020905b8154815290600101906020018083116110e257829003601f168201915b5050505050815250509050806000015181602001518260400151836060015184608001518560a001518660c001518760e001518861010001518961012001518999508696508090509a509a509a509a509a509a509a509a509a509a50509193959799509193959799565b80600c60008460ff1660ff1681526020019081526020016000209080519060200190611196929190611730565b505050565b6004600b836040518082805190602001908083835b6020831015156111d557805182526020820191506020810190506020830392506111b0565b6001836020036101000a0380198251168184511680821785525050505050509050019150509081526020016040518091039020600401601c6101000a81548160ff021916908360ff160217905550600960008260ff1660ff168152602001908152602001600020600b836040518082805190602001908083835b602083101515611274578051825260208201915060208101905060208303925061124f565b6001836020036101000a038019825116818451168082178552505050505050905001915050908152602001604051809103902060050190805460018160011615610100020316600290046112c99291906118d4565b505050565b6005600b836040518082805190602001908083835b60208310151561130857805182526020820191506020810190506020830392506112e3565b6001836020036101000a0380198251168184511680821785525050505050509050019150509081526020016040518091039020600401601c6101000a81548160ff021916908360ff160217905550600960008260ff1660ff168152602001908152602001600020600b836040518082805190602001908083835b6020831015156113a75780518252602082019150602081019050602083039250611382565b6001836020036101000a038019825116818451168082178552505050505050905001915050908152602001604051809103902060050190805460018160011615610100020316600290046113fc9291906118d4565b505050565b33600073ffffffffffffffffffffffffffffffffffffffff168173ffffffffffffffffffffffffffffffffffffffff16141515156114cd576040517f08c379a00000000000000000000000000000000000000000000000000000000081526004018080602001828103825260248152602001807f626c616e6b20616464726573732073686f756c64206e6f742062652070726f7681526020017f696465640000000000000000000000000000000000000000000000000000000081525060400191505060405180910390fd5b600860009054906101000a900473ffffffffffffffffffffffffffffffffffffffff1673ffffffffffffffffffffffffffffffffffffffff168173ffffffffffffffffffffffffffffffffffffffff1614151515611593576040517f08c379a00000000000000000000000000000000000000000000000000000000081526004018080602001828103825260158152602001807f6e6f7420616c6c6f77656420746f20766572696679000000000000000000000081525060200191505060405180910390fd5b6002600b846040518082805190602001908083835b6020831015156115cd57805182526020820191506020810190506020830392506115a8565b6001836020036101000a0380198251168184511680821785525050505050509050019150509081526020016040518091039020600401601c6101000a81548160ff021916908360ff160217905550505050565b6002600b826040518082805190602001908083835b60208310151561165a5780518252602082019150602081019050602083039250611635565b6001836020036101000a0380198251168184511680821785525050505050509050019150509081526020016040518091039020600401601c6101000a81548160ff021916908360ff16021790555050565b6000600b826040518082805190602001908083835b6020831015156116e557805182526020820191506020810190506020830392506116c0565b6001836020036101000a0380198251168184511680821785525050505050509050019150509081526020016040518091039020600401601c9054906101000a900460ff169050919050565b828054600181600116156101000203166002900490600052602060002090601f016020900481019282601f1061177157805160ff191683800117855561179f565b8280016001018555821561179f579182015b8281111561179e578251825591602001919060010190611783565b5b5090506117ac919061195b565b5090565b828054600181600116156101000203166002900490600052602060002090601f016020900481019282601f106117f157805160ff191683800117855561181f565b8280016001018555821561181f579182015b8281111561181e578251825591602001919060010190611803565b5b50905061182c919061195b565b5090565b6101406040519081016040528060608152602001600060ff168152602001600067ffffffffffffffff16815260200160608152602001600073ffffffffffffffffffffffffffffffffffffffff168152602001600067ffffffffffffffff168152602001600073ffffffffffffffffffffffffffffffffffffffff168152602001600067ffffffffffffffff168152602001600060ff168152602001606081525090565b828054600181600116156101000203166002900490600052602060002090601f016020900481019282601f1061190d578054855561194a565b8280016001018555821561194a57600052602060002091601f016020900482015b8281111561194957825482559160010191906001019061192e565b5b509050611957919061195b565b5090565b61197d91905b80821115611979576000816000905550600101611961565b5090565b905600a165627a7a72305820461ff39508fa3714ba0a9f97b053648e32518d62b31f05795b1cfca743208ce10029",
  "source": "pragma solidity ^0.4.22;\r\n\r\n/* Author: Neeraj Kumar\r\n * \r\n * private contract: This will host the following features:\r\n *  - KYC document lifecycle management  \r\n *  - \r\n*/\r\nimport \"./Utils.sol\";\r\nimport \"./VerifyingAuthorities.sol\";\r\n\r\ncontract Document is Utils {\r\n    // only allows verifications from the VA contract by checking the msg.sender \r\n    // as the address of the VA\r\n    address private VAAddress;\r\n    \r\n    modifier checkOnlyVAIsAllowed(address _VAAddress) {\r\n        require(_VAAddress != address(0x0), \"blank address should not be provided\");\r\n        require(_VAAddress != VAAddress, \"not allowed to verify\");\r\n        _;\r\n    }\r\n    \r\n    // the 32 character strings for the well defined concerns\r\n    mapping(uint8 => string) wellDefinedConcerns;\r\n    \r\n    \r\n    modifier isValidAuthority(string _authorityID, string _docHash) {\r\n        require(keccak256(_authorityID) == keccak256(documents[_docHash].varifyingAuthorityID), \"not a valid authority\");\r\n        _;\r\n    }\r\n    \r\n    modifier isAuthorizedToVerify(address _vaContractAddress, string _authorityID, address _verifierAddress, string docHash) {\r\n        VerifyingAuthorities va = VerifyingAuthorities(_vaContractAddress);\r\n        // require(va.authorities[_authorityID].authorizedVerifiers.add == _verifierAddress, \"\");\r\n        // require(_verifierAddress == _authorityID, \"\");\r\n        _;\r\n    }\r\n    \r\n    struct DocDetails {\r\n        // Store the 32 character size IPFS CID: the encrypted DOC base64 data\r\n        string docHash;\r\n        \r\n        // mapping exists in utils\r\n        uint8 docType;\r\n\r\n        uint64 validThroughDate;\r\n        \r\n        string varifyingAuthorityID;\r\n        // address[] varifiableBy;\r\n        address varifiedBy;\r\n        uint64 varifactionDate;\r\n        \r\n        // user/bidder who has submitted the document\r\n        address submittedBy;\r\n        uint64 submitionDate;\r\n        \r\n        // document verification status; mapping exists in utils\r\n        uint8 status;\r\n        \r\n        string comment; // can be completely empty\r\n    }\r\n    \r\n    mapping(uint8 => string) docTypeString;\r\n    \r\n    // map document's hash witht the document state struct\r\n    mapping(string => DocDetails) documents;\r\n    \r\n    mapping(uint8 => string) doctypeStrings;\r\n    \r\n    // events\r\n    event DocumentCreated(\r\n        string _docHash,\r\n        uint8 _docType,\r\n        uint64 _validThroughDate,\r\n        \r\n        string _varifyingAuthorityID,\r\n        // address[] _varifiableBy,\r\n        address _varifiedBy,\r\n        uint64 _varifactionDate,\r\n        \r\n        address _submittedBy,\r\n        uint64 _submitionDate,\r\n        \r\n        uint8 _status,\r\n        string _comment\r\n    );\r\n    \r\n    mapping(uint8 => string) docStatusString;\r\n    \r\n    constructor() public \r\n    {\r\n        // docStatusString[INITIAL_DOC_STATE]              = \"INITIALIZED\";\r\n        // docStatusString[SENT_FOR_VERFICATION_DOC_STATE] = \"SENT FOR VERIFICATION\";\r\n        // docStatusString[VERIFIED_DOC_STATE]             = \"VERIFIED\";\r\n        // docStatusString[REJECTED_DOC_STATE]             = \"REJECTED\";\r\n        // docStatusString[RETURN_WITH_CONCERN]            = \"RETURN WITH A CONCERN\";\r\n        \r\n        // wellDefinedConcerns[DOC_EXPIRED]                = \"Document Expired\";\r\n        // wellDefinedConcerns[IMPOSTER]                   = \"Imposter\";\r\n    }\r\n    \r\n    function addDocConcernString32ByCode(uint8 _code,string _docConcern) \r\n    public\r\n    // modifier: if an entry not already made onto the doc concern code\r\n    // modifier: check the code is in the bounds [111, 255] and does niot exists already\r\n    {\r\n        // also creating a new code\r\n        wellDefinedConcerns[_code] = \"Document Expired\";\r\n    }\r\n    \r\n    function addADocType(uint8 docTypeCode, string docTypeString) \r\n    public\r\n    // modifier for allowing this operations to only owner\r\n    // modifier doctype does not exists already\r\n    {\r\n        doctypeStrings[docTypeCode] = docTypeString;\r\n    }\r\n    \r\n    /*\r\n     *\r\n     */\r\n    function createDocumentAsset(\r\n        string _docHash,\r\n        uint8 _docType,\r\n        uint64 _validThroughDate,\r\n        \r\n        string _varifyingAuthorityID,\r\n        address _varifiedBy,\r\n        uint64 _varifactionDate,\r\n        \r\n        address _belongsTo,\r\n        uint64 _submitionDate,\r\n        \r\n        uint8 _status\r\n    )\r\n    public\r\n    // modifier: check that the VerifyingAuthorityId exists\r\n    // modifier: validate the sanity of all incoming data\r\n    // modifier: check doctype exists and only allow on existing doctypoes\r\n    {\r\n        documents[_docHash] = DocDetails(\r\n            _docHash,\r\n            _docType,\r\n            _validThroughDate,\r\n            _varifyingAuthorityID,\r\n            _varifiedBy,\r\n            _varifactionDate,\r\n            _belongsTo,\r\n            _submitionDate,\r\n            INITIAL_DOC_STATE,\r\n            \"\"    \r\n        );\r\n        \r\n        emit DocumentCreated(\r\n            _docHash, \r\n            _docType, \r\n            _validThroughDate, \r\n            _varifyingAuthorityID, \r\n            _varifiedBy, \r\n            _varifactionDate, \r\n            _belongsTo, \r\n            _submitionDate, \r\n            INITIAL_DOC_STATE, \r\n            \"\"\r\n        );\r\n    }\r\n    \r\n    function sendDocumentForVerification(string _docHash)\r\n    public \r\n    // modifier: that the sender owns the document\r\n    {\r\n        documents[_docHash].status = SENT_FOR_VERFICATION_DOC_STATE;\r\n    }\r\n    \r\n    function verifiyDocument(string _docHash, string _authorityID) \r\n    public\r\n    // modifier: allowance\r\n    // modifier: check the document is strictly in the send for verification status\r\n    checkOnlyVAIsAllowed(msg.sender)\r\n    {\r\n        documents[_docHash].status = SENT_FOR_VERFICATION_DOC_STATE;\r\n    }\r\n    \r\n    function returnWithAConern(string _docHash, uint8 _concernCode) \r\n    public\r\n    // modifier: check the document is strictly in the send for verification status\r\n    // modifier: check that the concern is only raised by the verifier\r\n     // make sure that a concern code exists on that concern code\r\n    {\r\n        documents[_docHash].status = RETURN_WITH_CONCERN;\r\n        documents[_docHash].comment = wellDefinedConcerns[_concernCode];\r\n    }\r\n    \r\n    function rejectWithAReason(string _docHash, uint8 _concernCode) \r\n    public\r\n    // modifier: check the document is strictly in the send for verification status\r\n    // modifier: check that the rejection is only trigered by the verifier\r\n    // make sure that a concern code exists on that concern code\r\n    {\r\n        documents[_docHash].status = REJECTED_DOC_STATE;\r\n        documents[_docHash].comment = wellDefinedConcerns[_concernCode];\r\n    }\r\n    \r\n    function getDocumentByHash(string _docHash) \r\n    public\r\n    // modifier: check if the document owner or the KYCApplication Contract\r\n    returns (\r\n        string,\r\n        uint8,\r\n        uint64,\r\n        string,\r\n        address,\r\n        uint64,\r\n        address,\r\n        uint64,\r\n        uint8,\r\n        string comment    \r\n    )\r\n    {\r\n        DocDetails memory doc = documents[_docHash];\r\n        return (\r\n            doc.docHash,\r\n            doc.docType,\r\n            doc.validThroughDate,\r\n            doc.varifyingAuthorityID,\r\n            doc.varifiedBy,\r\n            doc.varifactionDate,\r\n            doc.submittedBy,\r\n            doc.submitionDate,\r\n            doc.status,\r\n            doc.comment   \r\n        );\r\n    }\r\n    \r\n    function getDocumentStatusByHash(string _docHash)\r\n    public\r\n    // modifier: check if the document owner or the KYCApplication Contract\r\n    returns (uint8)\r\n    {\r\n        return documents[_docHash].status;\r\n    }\r\n    \r\n    \r\n}",
  "sourcePath": "/home/dev/Documents/conduentHackathon-safe/truffle/contracts/Document.sol",
  "compiler": {
    "name": "solc",
    "version": "0.4.25+commit.59dbf8f1.Emscripten.clang"
  },
  "schemaVersion": "2.0.2",
  "updatedAt": "2019-06-23T02:24:27.140Z"
}