{
  "contractName": "KYCApplications",
  "abi": [
    {
      "inputs": [],
      "payable": false,
      "stateMutability": "nonpayable",
      "type": "constructor"
    },
    {
      "constant": false,
      "inputs": [
        {
          "name": "_docCon",
          "type": "address"
        }
      ],
      "name": "setDocumentContract",
      "outputs": [],
      "payable": false,
      "stateMutability": "nonpayable",
      "type": "function"
    },
    {
      "constant": false,
      "inputs": [
        {
          "name": "_biddersCon",
          "type": "address"
        }
      ],
      "name": "setBiddersContract",
      "outputs": [],
      "payable": false,
      "stateMutability": "nonpayable",
      "type": "function"
    },
    {
      "constant": false,
      "inputs": [
        {
          "name": "_KYCApplicationID",
          "type": "string"
        },
        {
          "name": "_KYCTypeID",
          "type": "string"
        },
        {
          "name": "_neccessaryDocument",
          "type": "string"
        },
        {
          "name": "_validThroughDate",
          "type": "uint64"
        }
      ],
      "name": "ApplyForKYCNeccessaryDoc",
      "outputs": [],
      "payable": false,
      "stateMutability": "nonpayable",
      "type": "function"
    },
    {
      "constant": false,
      "inputs": [
        {
          "name": "_KYCApplicationID",
          "type": "string"
        },
        {
          "name": "_KYCTypeID",
          "type": "string"
        },
        {
          "name": "_optionalDocument",
          "type": "string"
        },
        {
          "name": "_validThroughDate",
          "type": "uint64"
        }
      ],
      "name": "ApplyForKYCOptionalDoc",
      "outputs": [],
      "payable": false,
      "stateMutability": "nonpayable",
      "type": "function"
    },
    {
      "constant": false,
      "inputs": [
        {
          "name": "_KYCApplicationID",
          "type": "string"
        }
      ],
      "name": "getKYCStatusByApplicationID",
      "outputs": [
        {
          "name": "",
          "type": "string"
        },
        {
          "name": "",
          "type": "string"
        },
        {
          "name": "",
          "type": "uint256"
        },
        {
          "name": "",
          "type": "uint256"
        },
        {
          "name": "",
          "type": "address"
        },
        {
          "name": "",
          "type": "uint64"
        },
        {
          "name": "",
          "type": "uint64"
        },
        {
          "name": "",
          "type": "uint8"
        },
        {
          "name": "",
          "type": "uint64"
        },
        {
          "name": "",
          "type": "uint64"
        }
      ],
      "payable": false,
      "stateMutability": "nonpayable",
      "type": "function"
    },
    {
      "constant": false,
      "inputs": [
        {
          "name": "_KYCApplicationID",
          "type": "string"
        },
        {
          "name": "ind",
          "type": "uint256"
        }
      ],
      "name": "getNeccessaryKYCDocument",
      "outputs": [
        {
          "name": "_neccessaryDocuments",
          "type": "string"
        }
      ],
      "payable": false,
      "stateMutability": "nonpayable",
      "type": "function"
    },
    {
      "constant": true,
      "inputs": [
        {
          "name": "_KYCApplicationID",
          "type": "string"
        }
      ],
      "name": "getNeccessaryKYCDocumentLength",
      "outputs": [
        {
          "name": "",
          "type": "uint256"
        }
      ],
      "payable": false,
      "stateMutability": "view",
      "type": "function"
    },
    {
      "constant": false,
      "inputs": [
        {
          "name": "_KYCApplicationID",
          "type": "string"
        },
        {
          "name": "ind",
          "type": "uint256"
        }
      ],
      "name": "getOptionalKYCDocument",
      "outputs": [
        {
          "name": "_optionalDocument",
          "type": "string"
        }
      ],
      "payable": false,
      "stateMutability": "nonpayable",
      "type": "function"
    },
    {
      "constant": true,
      "inputs": [
        {
          "name": "_KYCApplicationID",
          "type": "string"
        }
      ],
      "name": "getOptionalDocumentsLength",
      "outputs": [
        {
          "name": "",
          "type": "uint256"
        }
      ],
      "payable": false,
      "stateMutability": "view",
      "type": "function"
    },
    {
      "constant": false,
      "inputs": [
        {
          "name": "_KYCApplicationID",
          "type": "string"
        },
        {
          "name": "_validThroughDate",
          "type": "uint64"
        }
      ],
      "name": "processTheKYCApplication",
      "outputs": [],
      "payable": false,
      "stateMutability": "nonpayable",
      "type": "function"
    },
    {
      "constant": false,
      "inputs": [
        {
          "name": "_KYCApplicationID",
          "type": "string"
        }
      ],
      "name": "getKYCAppnStatusStringByAppnID",
      "outputs": [
        {
          "name": "",
          "type": "string"
        }
      ],
      "payable": false,
      "stateMutability": "nonpayable",
      "type": "function"
    },
    {
      "constant": false,
      "inputs": [
        {
          "name": "_KYCApplicationID",
          "type": "string"
        }
      ],
      "name": "getKYCAppnStatusCodeByAppnID",
      "outputs": [
        {
          "name": "",
          "type": "uint8"
        }
      ],
      "payable": false,
      "stateMutability": "nonpayable",
      "type": "function"
    }
  ],
  "bytecode": "0x60806040526000805560018055600280556003805534801561002057600080fd5b506127ca806100306000396000f3006080604052600436106100ba576000357c0100000000000000000000000000000000000000000000000000000000900463ffffffff1680630eddce45146100bf57806323a5df7e1461013c5780632d93731f146101b95780632e1f04e8146101fc5780634b8a29c6146102e85780637f331a1e146104f0578063a69902931461056d578063ba55c080146105b0578063bd8b656a1461069c578063ce2776a7146107a5578063e53cd90014610887578063f060544a14610990575b600080fd5b3480156100cb57600080fd5b5061013a600480360381019080803590602001908201803590602001908080601f0160208091040260200160405190810160405280939291908181526020018383808284378201915050505050509192919290803567ffffffffffffffff169060200190929190505050610a13565b005b34801561014857600080fd5b506101a3600480360381019080803590602001908201803590602001908080601f01602080910402602001604051908101604052809392919081815260200183838082843782019150505050505091929192905050506113e3565b6040518082815260200191505060405180910390f35b3480156101c557600080fd5b506101fa600480360381019080803573ffffffffffffffffffffffffffffffffffffffff16906020019092919050505061145e565b005b34801561020857600080fd5b5061026d600480360381019080803590602001908201803590602001908080601f0160208091040260200160405190810160405280939291908181526020018383808284378201915050505050509192919290803590602001909291905050506114a2565b6040518080602001828103825283818151815260200191508051906020019080838360005b838110156102ad578082015181840152602081019050610292565b50505050905090810190601f1680156102da5780820380516001836020036101000a031916815260200191505b509250505060405180910390f35b3480156102f457600080fd5b5061034f600480360381019080803590602001908201803590602001908080601f01602080910402602001604051908101604052809392919081815260200183838082843782019150505050505091929192905050506115ca565b6040518080602001806020018b81526020018a81526020018973ffffffffffffffffffffffffffffffffffffffff1673ffffffffffffffffffffffffffffffffffffffff1681526020018867ffffffffffffffff1667ffffffffffffffff1681526020018767ffffffffffffffff1667ffffffffffffffff1681526020018660ff1660ff1681526020018567ffffffffffffffff1667ffffffffffffffff1681526020018467ffffffffffffffff1667ffffffffffffffff16815260200183810383528d818151815260200191508051906020019080838360005b8381101561044557808201518184015260208101905061042a565b50505050905090810190601f1680156104725780820380516001836020036101000a031916815260200191505b5083810382528c818151815260200191508051906020019080838360005b838110156104ab578082015181840152602081019050610490565b50505050905090810190601f1680156104d85780820380516001836020036101000a031916815260200191505b509c5050505050505050505050505060405180910390f35b3480156104fc57600080fd5b50610557600480360381019080803590602001908201803590602001908080601f0160208091040260200160405190810160405280939291908181526020018383808284378201915050505050509192919290505050611b46565b6040518082815260200191505060405180910390f35b34801561057957600080fd5b506105ae600480360381019080803573ffffffffffffffffffffffffffffffffffffffff169060200190929190505050611bc1565b005b3480156105bc57600080fd5b50610621600480360381019080803590602001908201803590602001908080601f016020809104026020016040519081016040528093929190818152602001838380828437820191505050505050919291929080359060200190929190505050611c05565b6040518080602001828103825283818151815260200191508051906020019080838360005b83811015610661578082015181840152602081019050610646565b50505050905090810190601f16801561068e5780820380516001836020036101000a031916815260200191505b509250505060405180910390f35b3480156106a857600080fd5b506107a3600480360381019080803590602001908201803590602001908080601f0160208091040260200160405190810160405280939291908181526020018383808284378201915050505050509192919290803590602001908201803590602001908080601f0160208091040260200160405190810160405280939291908181526020018383808284378201915050505050509192919290803590602001908201803590602001908080601f0160208091040260200160405190810160405280939291908181526020018383808284378201915050505050509192919290803567ffffffffffffffff169060200190929190505050611d2d565b005b3480156107b157600080fd5b5061080c600480360381019080803590602001908201803590602001908080601f0160208091040260200160405190810160405280939291908181526020018383808284378201915050505050509192919290505050612072565b6040518080602001828103825283818151815260200191508051906020019080838360005b8381101561084c578082015181840152602081019050610831565b50505050905090810190601f1680156108795780820380516001836020036101000a031916815260200191505b509250505060405180910390f35b34801561089357600080fd5b5061098e600480360381019080803590602001908201803590602001908080601f0160208091040260200160405190810160405280939291908181526020018383808284378201915050505050509192919290803590602001908201803590602001908080601f0160208091040260200160405190810160405280939291908181526020018383808284378201915050505050509192919290803590602001908201803590602001908080601f0160208091040260200160405190810160405280939291908181526020018383808284378201915050505050509192919290803567ffffffffffffffff1690602001909291905050506121ae565b005b34801561099c57600080fd5b506109f7600480360381019080803590602001908201803590602001908080601f01602080910402602001604051908101604052809392919081815260200183838082843782019150505050505091929192905050506124f7565b604051808260ff1660ff16815260200191505060405180910390f35b6060806000806000600c876040518082805190602001908083835b602083101515610a535780518252602082019150602081019050602083039250610a2e565b6001836020036101000a0380198251168184511680821785525050505050509050019150509081526020016040518091039020600201805480602002602001604051908101604052809291908181526020016000905b82821015610b65578382906000526020600020018054600181600116156101000203166002900480601f016020809104026020016040519081016040528092919081815260200182805460018160011615610100020316600290048015610b515780601f10610b2657610100808354040283529160200191610b51565b820191906000526020600020905b815481529060010190602001808311610b3457829003601f168201915b505050505081526020019060010190610aa9565b505050509450600c876040518082805190602001908083835b602083101515610ba35780518252602082019150602081019050602083039250610b7e565b6001836020036101000a0380198251168184511680821785525050505050509050019150509081526020016040518091039020600401805480602002602001604051908101604052809291908181526020016000905b82821015610cb5578382906000526020600020018054600181600116156101000203166002900480601f016020809104026020016040519081016040528092919081815260200182805460018160011615610100020316600290048015610ca15780601f10610c7657610100808354040283529160200191610ca1565b820191906000526020600020905b815481529060010190602001808311610c8457829003601f168201915b505050505081526020019060010190610bf9565b505050509350600092506000915060009050600091505b8451821015610e4557600960009054906101000a900473ffffffffffffffffffffffffffffffffffffffff1673ffffffffffffffffffffffffffffffffffffffff1663eca5db9a8684815181101515610d2157fe5b906020019060200201516040518263ffffffff167c01000000000000000000000000000000000000000000000000000000000281526004018080602001828103825283818151815260200191508051906020019080838360005b83811015610d96578082015181840152602081019050610d7b565b50505050905090810190601f168015610dc35780820380516001836020036101000a031916815260200191505b5092505050602060405180830381600087803b158015610de257600080fd5b505af1158015610df6573d6000803e3d6000fd5b505050506040513d6020811015610e0c57600080fd5b81019080805190602001909291905050509050600360ff168160ff16141515610e385760019250610e45565b8180600101925050610ccc565b60009050600091505b8351821015610fc457600360ff16600960009054906101000a900473ffffffffffffffffffffffffffffffffffffffff1673ffffffffffffffffffffffffffffffffffffffff1663eca5db9a8685815181101515610ea857fe5b906020019060200201516040518263ffffffff167c01000000000000000000000000000000000000000000000000000000000281526004018080602001828103825283818151815260200191508051906020019080838360005b83811015610f1d578082015181840152602081019050610f02565b50505050905090810190601f168015610f4a5780820380516001836020036101000a031916815260200191505b5092505050602060405180830381600087803b158015610f6957600080fd5b505af1158015610f7d573d6000803e3d6000fd5b505050506040513d6020811015610f9357600080fd5b810190808051906020019092919050505060ff16141515610fb75760019250610fc4565b8180600101925050610e4e565b82156110ec576020600c886040518082805190602001908083835b6020831015156110045780518252602082019150602081019050602083039250610fdf565b6001836020036101000a038019825116818451168082178552505050505050905001915050908152602001604051809103902060060160086101000a81548160ff021916908360ff16021790555042600c886040518082805190602001908083835b60208310151561108b5780518252602082019150602081019050602083039250611066565b6001836020036101000a038019825116818451168082178552505050505050905001915050908152602001604051809103902060060160096101000a81548167ffffffffffffffff021916908367ffffffffffffffff1602179055506113da565b601f600c886040518082805190602001908083835b6020831015156111265780518252602082019150602081019050602083039250611101565b6001836020036101000a038019825116818451168082178552505050505050905001915050908152602001604051809103902060060160086101000a81548160ff021916908360ff16021790555042600c886040518082805190602001908083835b6020831015156111ad5780518252602082019150602081019050602083039250611188565b6001836020036101000a038019825116818451168082178552505050505050905001915050908152602001604051809103902060060160096101000a81548167ffffffffffffffff021916908367ffffffffffffffff160217905550600a60009054906101000a900473ffffffffffffffffffffffffffffffffffffffff1673ffffffffffffffffffffffffffffffffffffffff166375480928600c896040518082805190602001908083835b60208310151561127f578051825260208201915060208101905060208303925061125a565b6001836020036101000a038019825116818451168082178552505050505050905001915050908152602001604051809103902060050160019054906101000a900473ffffffffffffffffffffffffffffffffffffffff16896040518363ffffffff167c0100000000000000000000000000000000000000000000000000000000028152600401808373ffffffffffffffffffffffffffffffffffffffff1673ffffffffffffffffffffffffffffffffffffffff16815260200180602001828103825283818151815260200191508051906020019080838360005b83811015611374578082015181840152602081019050611359565b50505050905090810190601f1680156113a15780820380516001836020036101000a031916815260200191505b509350505050600060405180830381600087803b1580156113c157600080fd5b505af11580156113d5573d6000803e3d6000fd5b505050505b50505050505050565b6000600c826040518082805190602001908083835b60208310151561141d57805182526020820191506020810190506020830392506113f8565b6001836020036101000a0380198251168184511680821785525050505050509050019150509081526020016040518091039020600401805490509050919050565b80600960006101000a81548173ffffffffffffffffffffffffffffffffffffffff021916908373ffffffffffffffffffffffffffffffffffffffff16021790555050565b6060600c836040518082805190602001908083835b6020831015156114dc57805182526020820191506020810190506020830392506114b7565b6001836020036101000a03801982511681845116808217855250505050505090500191505090815260200160405180910390206002018281548110151561151f57fe5b906000526020600020018054600181600116156101000203166002900480601f0160208091040260200160405190810160405280929190818152602001828054600181600116156101000203166002900480156115bd5780601f10611592576101008083540402835291602001916115bd565b820191906000526020600020905b8154815290600101906020018083116115a057829003601f168201915b5050505050905092915050565b6060806000806000806000806000806115e161257c565b600c8c6040518082805190602001908083835b60208310151561161957805182526020820191506020810190506020830392506115f4565b6001836020036101000a03801982511681845116808217855250505050505090500191505090815260200160405180910390206101806040519081016040529081600082018054600181600116156101000203166002900480601f0160208091040260200160405190810160405280929190818152602001828054600181600116156101000203166002900480156116f25780601f106116c7576101008083540402835291602001916116f2565b820191906000526020600020905b8154815290600101906020018083116116d557829003601f168201915b50505050508152602001600182018054600181600116156101000203166002900480601f0160208091040260200160405190810160405280929190818152602001828054600181600116156101000203166002900480156117945780601f1061176957610100808354040283529160200191611794565b820191906000526020600020905b81548152906001019060200180831161177757829003601f168201915b5050505050815260200160028201805480602002602001604051908101604052809291908181526020016000905b8282101561187e578382906000526020600020018054600181600116156101000203166002900480601f01602080910402602001604051908101604052809291908181526020018280546001816001161561010002031660029004801561186a5780601f1061183f5761010080835404028352916020019161186a565b820191906000526020600020905b81548152906001019060200180831161184d57829003601f168201915b5050505050815260200190600101906117c2565b5050505081526020016003820160009054906101000a900460ff1660ff1660ff16815260200160048201805480602002602001604051908101604052809291908181526020016000905b82821015611984578382906000526020600020018054600181600116156101000203166002900480601f0160208091040260200160405190810160405280929190818152602001828054600181600116156101000203166002900480156119705780601f1061194557610100808354040283529160200191611970565b820191906000526020600020905b81548152906001019060200180831161195357829003601f168201915b5050505050815260200190600101906118c8565b5050505081526020016005820160009054906101000a900460ff1660ff1660ff1681526020016005820160019054906101000a900473ffffffffffffffffffffffffffffffffffffffff1673ffffffffffffffffffffffffffffffffffffffff1673ffffffffffffffffffffffffffffffffffffffff1681526020016005820160159054906101000a900467ffffffffffffffff1667ffffffffffffffff1667ffffffffffffffff1681526020016006820160009054906101000a900467ffffffffffffffff1667ffffffffffffffff1667ffffffffffffffff1681526020016006820160089054906101000a900460ff1660ff1660ff1681526020016006820160099054906101000a900467ffffffffffffffff1667ffffffffffffffff1667ffffffffffffffff1681526020016006820160119054906101000a900467ffffffffffffffff1667ffffffffffffffff1667ffffffffffffffff16815250509050806000015181602001518260400151518360800151518460c001518560e001518661010001518761012001518861014001518961016001518999508898509a509a509a509a509a509a509a509a509a509a50509193959799509193959799565b6000600c826040518082805190602001908083835b602083101515611b805780518252602082019150602081019050602083039250611b5b565b6001836020036101000a0380198251168184511680821785525050505050509050019150509081526020016040518091039020600201805490509050919050565b80600a60006101000a81548173ffffffffffffffffffffffffffffffffffffffff021916908373ffffffffffffffffffffffffffffffffffffffff16021790555050565b6060600c836040518082805190602001908083835b602083101515611c3f5780518252602082019150602081019050602083039250611c1a565b6001836020036101000a038019825116818451168082178552505050505050905001915050908152602001604051809103902060040182815481101515611c8257fe5b906000526020600020018054600181600116156101000203166002900480601f016020809104026020016040519081016040528092919081815260200182805460018160011615610100020316600290048015611d205780601f10611cf557610100808354040283529160200191611d20565b820191906000526020600020905b815481529060010190602001808311611d0357829003601f168201915b5050505050905092915050565b611d3561257c565b8481600001819052508381602001819052508281608001518260a0015160ff16815181101515611d6157fe5b906020019060200201819052508060a001805180919060010160ff1660ff1681525050338160c0019073ffffffffffffffffffffffffffffffffffffffff16908173ffffffffffffffffffffffffffffffffffffffff1681525050428160e0019067ffffffffffffffff16908167ffffffffffffffff16815250504281610100019067ffffffffffffffff16908167ffffffffffffffff16815250508181610160019067ffffffffffffffff16908167ffffffffffffffff168152505080600c866040518082805190602001908083835b602083101515611e575780518252602082019150602081019050602083039250611e32565b6001836020036101000a03801982511681845116808217855250505050505090500191505090815260200160405180910390206000820151816000019080519060200190611ea6929190612625565b506020820151816001019080519060200190611ec3929190612625565b506040820151816002019080519060200190611ee09291906126a5565b5060608201518160030160006101000a81548160ff021916908360ff1602179055506080820151816004019080519060200190611f1e9291906126a5565b5060a08201518160050160006101000a81548160ff021916908360ff16021790555060c08201518160050160016101000a81548173ffffffffffffffffffffffffffffffffffffffff021916908373ffffffffffffffffffffffffffffffffffffffff16021790555060e08201518160050160156101000a81548167ffffffffffffffff021916908367ffffffffffffffff1602179055506101008201518160060160006101000a81548167ffffffffffffffff021916908367ffffffffffffffff1602179055506101208201518160060160086101000a81548160ff021916908360ff1602179055506101408201518160060160096101000a81548167ffffffffffffffff021916908367ffffffffffffffff1602179055506101608201518160060160116101000a81548167ffffffffffffffff021916908367ffffffffffffffff1602179055509050505050505050565b60606000600c836040518082805190602001908083835b6020831015156120ae5780518252602082019150602081019050602083039250612089565b6001836020036101000a038019825116818451168082178552505050505050905001915050908152602001604051809103902060060160089054906101000a900460ff169050600d60008260ff1660ff1681526020019081526020016000208054600181600116156101000203166002900480601f0160208091040260200160405190810160405280929190818152602001828054600181600116156101000203166002900480156121a15780601f10612176576101008083540402835291602001916121a1565b820191906000526020600020905b81548152906001019060200180831161218457829003601f168201915b5050505050915050919050565b6121b661257c565b848160000181905250838160200181905250828160400151826060015160ff168151811015156121e257fe5b9060200190602002018190525080606001805180919060010160ff1660ff1681525050338160c0019073ffffffffffffffffffffffffffffffffffffffff16908173ffffffffffffffffffffffffffffffffffffffff1681525050428160e0019067ffffffffffffffff16908167ffffffffffffffff16815250504281610100019067ffffffffffffffff16908167ffffffffffffffff16815250508181610160019067ffffffffffffffff16908167ffffffffffffffff168152505080600c82600001516040518082805190602001908083835b6020831015156122dc57805182526020820191506020810190506020830392506122b7565b6001836020036101000a0380198251168184511680821785525050505050509050019150509081526020016040518091039020600082015181600001908051906020019061232b929190612625565b506020820151816001019080519060200190612348929190612625565b5060408201518160020190805190602001906123659291906126a5565b5060608201518160030160006101000a81548160ff021916908360ff16021790555060808201518160040190805190602001906123a39291906126a5565b5060a08201518160050160006101000a81548160ff021916908360ff16021790555060c08201518160050160016101000a81548173ffffffffffffffffffffffffffffffffffffffff021916908373ffffffffffffffffffffffffffffffffffffffff16021790555060e08201518160050160156101000a81548167ffffffffffffffff021916908367ffffffffffffffff1602179055506101008201518160060160006101000a81548167ffffffffffffffff021916908367ffffffffffffffff1602179055506101208201518160060160086101000a81548160ff021916908360ff1602179055506101408201518160060160096101000a81548167ffffffffffffffff021916908367ffffffffffffffff1602179055506101608201518160060160116101000a81548167ffffffffffffffff021916908367ffffffffffffffff1602179055509050505050505050565b6000600c826040518082805190602001908083835b602083101515612531578051825260208201915060208101905060208303925061250c565b6001836020036101000a038019825116818451168082178552505050505050905001915050908152602001604051809103902060060160089054906101000a900460ff169050919050565b61018060405190810160405280606081526020016060815260200160608152602001600060ff16815260200160608152602001600060ff168152602001600073ffffffffffffffffffffffffffffffffffffffff168152602001600067ffffffffffffffff168152602001600067ffffffffffffffff168152602001600060ff168152602001600067ffffffffffffffff168152602001600067ffffffffffffffff1681525090565b828054600181600116156101000203166002900490600052602060002090601f016020900481019282601f1061266657805160ff1916838001178555612694565b82800160010185558215612694579182015b82811115612693578251825591602001919060010190612678565b5b5090506126a19190612705565b5090565b8280548282559060005260206000209081019282156126f4579160200282015b828111156126f35782518290805190602001906126e3929190612625565b50916020019190600101906126c5565b5b509050612701919061272a565b5090565b61272791905b8082111561272357600081600090555060010161270b565b5090565b90565b61275391905b8082111561274f57600081816127469190612756565b50600101612730565b5090565b90565b50805460018160011615610100020316600290046000825580601f1061277c575061279b565b601f01602090049060005260206000209081019061279a9190612705565b5b505600a165627a7a723058202979bc8fd2334910eb005ada5e2f122faa7dccc37cef77c3dc0d35ad9e0031b20029",
  "source": "pragma solidity ^0.4.22;\r\n\r\n/* Author: Neeraj Kumar\r\n * \r\n * private contract: This will host the following features:\r\n *  - KYC Applications\r\n *  - \r\n*/\r\n\r\nimport \"./KYCTypes.sol\";\r\nimport \"./Document.sol\";\r\nimport \"./Utils.sol\";\r\nimport \"./Users.sol\";\r\n\r\ncontract KYCApplications is Utils {\r\n    \r\n    address private owner;\r\n    Document documentCon;\r\n    Users biddingUsers;\r\n    \r\n    \r\n    function setDocumentContract(address _docCon) \r\n    public\r\n    //modifier: make sure only the owbner is able to do it\r\n    {\r\n        documentCon = Document(_docCon);\r\n    }\r\n    \r\n    function setBiddersContract(address _biddersCon) \r\n    public\r\n    //modifier: make sure only the owbner is able to do it\r\n    {\r\n        biddingUsers = Users(_biddersCon);\r\n    }\r\n    \r\n    struct KYCApplication {\r\n        string KYCApplicationID;\r\n        \r\n        string KYCTypeID;\r\n        string[] neccessaryDocuments; \r\n        uint8 nDInd;\r\n        string[] optionalDocuments; \r\n        uint8 oDInd;\r\n        \r\n        address submittedBy;\r\n        uint64 submittedAt;\r\n        \r\n        uint64 modifiedAt;\r\n        \r\n        uint8 actionTaken;\r\n        uint64 latestActionDate;\r\n        \r\n        uint64 validThroughDate;\r\n    }\r\n    \r\n    // KYCTypeID => (KYCApplicationID => KYCApplication)\r\n    mapping (string => mapping(string => KYCApplication)) KYCApplicationsByType;\r\n    \r\n    // KYCApplicationID => KYCApplication\r\n    mapping (string => KYCApplication) KYCApplications;\r\n    \r\n    mapping(uint8 => string) KYCAppActionTakenStrings;\r\n    \r\n    \r\n    constructor() public{\r\n        // KYCAppActionTakenStrings[ACTION_TAKEN_ACCEPT] = \"ACCEPTED\";\r\n        // KYCAppActionTakenStrings[ACTION_TAKEN_REJECT] = \"REJECTED\";\r\n    }\r\n    \r\n    function ApplyForKYCNeccessaryDoc(\r\n        string _KYCApplicationID,\r\n        string _KYCTypeID,\r\n        string memory _neccessaryDocument,\r\n        uint64 _validThroughDate\r\n    )\r\n    public\r\n    // modifier: check the KYC by the application name not already exists\r\n    // modifiers: check sanioty of all input fields\r\n    // modifier: check whether all the doc hashes in both array exists\r\n    // modifier: check the submitter exists and not a smart contract\r\n    {        \r\n        KYCApplication memory ka;\r\n        \r\n        ka.KYCApplicationID=_KYCApplicationID;\r\n        ka.KYCTypeID=_KYCTypeID;\r\n\r\n        ka.neccessaryDocuments[ka.nDInd] = _neccessaryDocument;\r\n        ka.nDInd++;\r\n        \r\n        ka.submittedBy = msg.sender;\r\n        \r\n        //  a little risky due to under run\r\n        ka.submittedAt=uint64(now);\r\n        ka.modifiedAt=uint64(now);\r\n        ka.validThroughDate=_validThroughDate;\r\n\r\n        KYCApplications[ka.KYCApplicationID] = ka;\r\n    }\r\n    \r\n    function ApplyForKYCOptionalDoc(\r\n        string _KYCApplicationID,\r\n        string _KYCTypeID,\r\n        string memory _optionalDocument,\r\n        uint64 _validThroughDate\r\n    )\r\n    public\r\n    // modifier: check the KYC by the application name not already exists\r\n    // modifiers: check sanioty of all input fields\r\n    // modifier: check whether all the doc hashes in both array exists\r\n    // modifier: check the submitter exists and not a smart contract\r\n    {        \r\n        KYCApplication memory ka;\r\n        \r\n        ka.KYCApplicationID=_KYCApplicationID;\r\n        ka.KYCTypeID=_KYCTypeID;\r\n        \r\n        ka.optionalDocuments[ka.oDInd] = _optionalDocument;\r\n        ka.oDInd++;\r\n        \r\n        ka.submittedBy=msg.sender;\r\n        \r\n        //  a little risky due to under run\r\n        ka.submittedAt=uint64(now);\r\n        ka.modifiedAt=uint64(now);\r\n\r\n        ka.validThroughDate=_validThroughDate;\r\n        KYCApplications[_KYCApplicationID] = ka;\r\n    }\r\n\r\n    function getKYCStatusByApplicationID(\r\n        string _KYCApplicationID\r\n    )\r\n    public \r\n    //modifier: check whether a data with this application ID exists\r\n    // modifier:  check the user owns the KYC or KYC initializer\r\n    returns(\r\n        string,\r\n        string,\r\n        uint,\r\n        uint,\r\n        address,\r\n        uint64,\r\n        uint64,\r\n        uint8,\r\n        uint64,\r\n        uint64\r\n    )\r\n    {\r\n        KYCApplication memory kycApp = KYCApplications[_KYCApplicationID];\r\n        \r\n        return(\r\n            kycApp.KYCApplicationID,\r\n            kycApp.KYCTypeID,\r\n            kycApp.neccessaryDocuments.length,\r\n            kycApp.optionalDocuments.length,\r\n            kycApp.submittedBy,\r\n            kycApp.submittedAt,\r\n            kycApp.modifiedAt,\r\n            kycApp.actionTaken,\r\n            kycApp.latestActionDate,\r\n            kycApp.validThroughDate\r\n        );\r\n    }\r\n    \r\n    function getNeccessaryKYCDocument(\r\n        string _KYCApplicationID,\r\n        uint ind\r\n    )\r\n    public\r\n    //modifier: check whether the KYCAppliocationID data exists\r\n    returns(string memory _neccessaryDocuments)\r\n    {\r\n        return KYCApplications[_KYCApplicationID].neccessaryDocuments[ind];\r\n    }\r\n\r\n    function getNeccessaryKYCDocumentLength(\r\n        string _KYCApplicationID\r\n    )\r\n    public\r\n    view\r\n    returns (uint)\r\n    {\r\n        return KYCApplications[_KYCApplicationID].neccessaryDocuments.length;\r\n    }\r\n    \r\n    function getOptionalKYCDocument(\r\n        string _KYCApplicationID,\r\n        uint ind\r\n    )\r\n    public\r\n    //modifier: check whether the KYCAppliocationID data exists\r\n    returns(string memory _optionalDocument)\r\n    {\r\n        return KYCApplications[_KYCApplicationID].optionalDocuments[ind];\r\n    }\r\n\r\n    function getOptionalDocumentsLength(\r\n        string _KYCApplicationID\r\n    )\r\n    public\r\n    view\r\n    returns (uint)\r\n    {\r\n        return KYCApplications[_KYCApplicationID].optionalDocuments.length;\r\n    }\r\n    \r\n    // function getNeccessaryAndOptionalKYCDocument(\r\n    //     string _KYCApplicationID\r\n    // )\r\n    // public\r\n    // //modifier: check whether the KYCAppliocationID data exists\r\n    // returns(\r\n    //     string[] memory _neccessaryDocuments,\r\n    //     string[] memory _optionalDocuments\r\n    // )\r\n    // {\r\n    //     return (\r\n    //         KYCApplications[_KYCApplicationID].neccessaryDocuments,\r\n    //         KYCApplications[_KYCApplicationID].optionalDocuments\r\n    //     );\r\n    // }\r\n    \r\n    function processTheKYCApplication(\r\n        string _KYCApplicationID,\r\n        uint64 _validThroughDate\r\n    )\r\n    public\r\n    // modifier: make sure that the document contract is already initialized\r\n    // modifier: check the KYCApplicationID\r\n    // modifier: procesed only by the KYC initializer\r\n    {\r\n        string[] memory neccDocs = KYCApplications[_KYCApplicationID].neccessaryDocuments;\r\n        string[] memory optionalDocs = KYCApplications[_KYCApplicationID].optionalDocuments;\r\n        \r\n        bool docFlag = false;\r\n        \r\n        // check all the neccessary KYC documents are in verified latestActionDate\r\n        // check that the all the neccessary KYC documents' expiry date does not exceed the asked KYC expiry date\r\n        uint ind = 0;\r\n        uint8 docStatus = 0;\r\n        for(ind=0; ind < neccDocs.length; ind++){\r\n            docStatus = documentCon.getDocumentStatusByHash(neccDocs[ind]); \r\n            if(docStatus != VERIFIED_DOC_STATE){\r\n                docFlag = true;\r\n                break;\r\n            }\r\n        }\r\n        docStatus = 0;\r\n        \r\n        for(ind=0; ind < optionalDocs.length; ind++){\r\n            \r\n            if(documentCon.getDocumentStatusByHash(optionalDocs[ind]) != VERIFIED_DOC_STATE){\r\n                docFlag = true;\r\n                break;\r\n            }\r\n        }\r\n        \r\n        if(docFlag) {\r\n            // reject the KYC\r\n            KYCApplications[_KYCApplicationID].actionTaken = ACTION_TAKEN_REJECT;\r\n            KYCApplications[_KYCApplicationID].latestActionDate = uint64(now);\r\n        } else {\r\n            // accept the KYC\r\n            KYCApplications[_KYCApplicationID].actionTaken = ACTION_TAKEN_ACCEPT;\r\n            KYCApplications[_KYCApplicationID].latestActionDate = uint64(now);\r\n            \r\n            \r\n            // also ad the KYC application to the biddingUsers KYC APplications so far\r\n            //address _userAddress, uint8 _role, string _KYCAPplicationID\r\n            biddingUsers.AddKYCApplication(KYCApplications[_KYCApplicationID].submittedBy, _KYCApplicationID);\r\n        }\r\n    }\r\n    \r\n    function getKYCAppnStatusStringByAppnID(\r\n        string _KYCApplicationID\r\n    ) \r\n    public\r\n    //modifier: check the appropriate pull\r\n    returns (string)\r\n    {\r\n        uint8 actionTaken = KYCApplications[_KYCApplicationID].actionTaken;\r\n        return KYCAppActionTakenStrings[actionTaken];\r\n    }\r\n    \r\n    function getKYCAppnStatusCodeByAppnID(\r\n        string _KYCApplicationID\r\n    ) \r\n    public\r\n    //modifier: check the appropriate pull\r\n    returns (uint8)\r\n    {\r\n        return KYCApplications[_KYCApplicationID].actionTaken;\r\n    }\r\n}\r\n",
  "sourcePath": "/home/dev/Documents/conduentHackathon-safe/truffle/contracts/KYCApplications.sol",
  "compiler": {
    "name": "solc",
    "version": "0.4.25+commit.59dbf8f1.Emscripten.clang"
  },
  "schemaVersion": "2.0.2",
  "updatedAt": "2019-06-23T02:24:27.152Z"
}