{
  "contractName": "KYCTypes",
  "abi": [
    {
      "inputs": [],
      "payable": false,
      "stateMutability": "nonpayable",
      "type": "constructor"
    },
    {
      "constant": true,
      "inputs": [
        {
          "name": "_KYCTypeID",
          "type": "string"
        }
      ],
      "name": "getKYCTypeDetailsByTypeID",
      "outputs": [
        {
          "name": "",
          "type": "string"
        },
        {
          "name": "",
          "type": "address"
        },
        {
          "name": "",
          "type": "uint8"
        },
        {
          "name": "",
          "type": "uint8"
        },
        {
          "name": "",
          "type": "uint8"
        },
        {
          "name": "neccessaryDocumentTypes",
          "type": "uint8[]"
        },
        {
          "name": "optionalDocumentTypes",
          "type": "uint8[]"
        }
      ],
      "payable": false,
      "stateMutability": "view",
      "type": "function"
    }
  ],
  "bytecode": "0x60806040526000805560018055600280556003805534801561002057600080fd5b506105b8806100306000396000f300608060405260043610610041576000357c0100000000000000000000000000000000000000000000000000000000900463ffffffff1680630b939c1914610046575b600080fd5b34801561005257600080fd5b506100ad600480360381019080803590602001908201803590602001908080601f0160208091040260200160405190810160405280939291908181526020018383808284378201915050505050509192919290505050610212565b60405180806020018873ffffffffffffffffffffffffffffffffffffffff1673ffffffffffffffffffffffffffffffffffffffff1681526020018760ff1660ff1681526020018660ff1660ff1681526020018560ff1660ff168152602001806020018060200184810384528b818151815260200191508051906020019080838360005b8381101561014b578082015181840152602081019050610130565b50505050905090810190601f1680156101785780820380516001836020036101000a031916815260200191505b50848103835286818151815260200191508051906020019060200280838360005b838110156101b4578082015181840152602081019050610199565b50505050905001848103825285818151815260200191508051906020019060200280838360005b838110156101f65780820151818401526020810190506101db565b505050509050019a505050505050505050505060405180910390f35b606060008060008060608061022561052f565b600a896040518082805190602001908083835b60208310151561025d5780518252602082019150602081019050602083039250610238565b6001836020036101000a038019825116818451168082178552505050505050905001915050908152602001604051809103902060e06040519081016040529081600082018054600181600116156101000203166002900480601f0160208091040260200160405190810160405280929190818152602001828054600181600116156101000203166002900480156103355780601f1061030a57610100808354040283529160200191610335565b820191906000526020600020905b81548152906001019060200180831161031857829003601f168201915b505050505081526020016001820160009054906101000a900473ffffffffffffffffffffffffffffffffffffffff1673ffffffffffffffffffffffffffffffffffffffff1673ffffffffffffffffffffffffffffffffffffffff1681526020016001820160149054906101000a900460ff1660ff1660ff1681526020016001820160159054906101000a900460ff1660ff1660ff1681526020016001820160169054906101000a900460ff1660ff1660ff1681526020016002820180548060200260200160405190810160405280929190818152602001828054801561046057602002820191906000526020600020906000905b82829054906101000a900460ff1660ff16815260200190600101906020826000010492830192600103820291508084116104295790505b50505050508152602001600382018054806020026020016040519081016040528092919081815260200182805480156104de57602002820191906000526020600020906000905b82829054906101000a900460ff1660ff16815260200190600101906020826000010492830192600103820291508084116104a75790505b5050505050815250509050806000015181602001518260400151836060015184608001518560a001518660c00151869650819150809050975097509750975097509750975050919395979092949650565b60e06040519081016040528060608152602001600073ffffffffffffffffffffffffffffffffffffffff168152602001600060ff168152602001600060ff168152602001600060ff168152602001606081526020016060815250905600a165627a7a72305820448d4c59eb41912c47e013b000032231329462f736048ad2b0165eb866f3672a0029",
  "source": "pragma solidity ^0.4.22;\r\n\r\n/* Author: Neeraj Kumar\r\n * \r\n * private contract: This will host the following features:\r\n *  - KYC  \r\n *  - \r\n*/\r\n\r\nimport \"./Utils.sol\";\r\n\r\ncontract KYCTypes is Utils {\r\n    \r\n    address private owner;\r\n    \r\n    struct KYCTypeDetails {\r\n        string KYCTypeID;\r\n        address initializingParty;\r\n        // auditor, member, bidder/user\r\n        uint8 KYCType; // mapit with a string NAME/explanation\r\n        uint8 status;   \r\n        uint8 KYCTypeState; // map it with a btes32 for the active, deactive, stalled states\r\n        \r\n        uint8[] neccessaryDocumentTypes;\r\n        uint8[] optionalDocumentTypes;\r\n    }\r\n    \r\n    mapping (uint8=>string) KYCTypesExplanation;\r\n    \r\n    //KYCTypeID to KYCDEtails\r\n    mapping (string => KYCTypeDetails) KYCTypesAvailable;\r\n    \r\n    mapping(uint8 => string) KYCTypeStatusStrings;\r\n    \r\n    constructor () public {\r\n        // KYCTypesExplanation[KYC_TYPE_AUDITOR]   = \"Auditor KYC\";\r\n        // KYCTypesExplanation[KYC_TYPE_COM_MEMBER]= \"Com Member KYC\";\r\n        // KYCTypesExplanation[KYC_TYPE_USR_BIDDER]= \"User/Bidder KYC\";\r\n    }\r\n    \r\n    function getKYCTypeDetailsByTypeID(\r\n        string _KYCTypeID\r\n    ) \r\n    public \r\n    view \r\n    // modifier: check the KYC type exists by the TypeID\r\n    returns (\r\n        string,\r\n        address,\r\n        uint8,\r\n        uint8,\r\n        uint8,\r\n        uint8[] memory neccessaryDocumentTypes,\r\n        uint8[] memory optionalDocumentTypes\r\n    )\r\n    {\r\n        KYCTypeDetails memory kyd = KYCTypesAvailable[_KYCTypeID];\r\n        return (\r\n            kyd.KYCTypeID,\r\n            kyd.initializingParty,\r\n            kyd.KYCType,\r\n            kyd.status,\r\n            kyd.KYCTypeState,\r\n            kyd.neccessaryDocumentTypes,\r\n            kyd.optionalDocumentTypes\r\n        );\r\n    }\r\n   \r\n}\r\n",
  "sourcePath": "/home/dev/Documents/conduentHackathon-safe/truffle/contracts/KYCTypes.sol",
  "compiler": {
    "name": "solc",
    "version": "0.4.25+commit.59dbf8f1.Emscripten.clang"
  },
  "schemaVersion": "2.0.2",
  "updatedAt": "2019-06-23T02:24:27.047Z"
}