{
  "contractName": "RFP_TDoc_InvAuth",
  "abi": [
    {
      "constant": false,
      "inputs": [
        {
          "name": "_docCID",
          "type": "string"
        },
        {
          "name": "_DocHash",
          "type": "string"
        }
      ],
      "name": "addTenderDoc",
      "outputs": [],
      "payable": false,
      "stateMutability": "nonpayable",
      "type": "function"
    },
    {
      "constant": false,
      "inputs": [
        {
          "name": "_authAddress",
          "type": "address"
        },
        {
          "name": "_name",
          "type": "string"
        },
        {
          "name": "_Address",
          "type": "string"
        }
      ],
      "name": "addTenderInvitingAuth",
      "outputs": [],
      "payable": false,
      "stateMutability": "nonpayable",
      "type": "function"
    }
  ],
  "bytecode": "0x60806040526000805560018055600280556003805534801561002057600080fd5b50610346806100306000396000f30060806040526004361061004c576000357c0100000000000000000000000000000000000000000000000000000000900463ffffffff168063448309e414610051578063da41405814610120575b600080fd5b34801561005d57600080fd5b5061011e600480360381019080803573ffffffffffffffffffffffffffffffffffffffff169060200190929190803590602001908201803590602001908080601f0160208091040260200160405190810160405280939291908181526020018383808284378201915050505050509192919290803590602001908201803590602001908080601f01602080910402602001604051908101604052809392919081815260200183838082843782019150505050505091929192905050506101cf565b005b34801561012c57600080fd5b506101cd600480360381019080803590602001908201803590602001908080601f0160208091040260200160405190810160405280939291908181526020018383808284378201915050505050509192919290803590602001908201803590602001908080601f0160208091040260200160405190810160405280939291908181526020018383808284378201915050505050509192919290505050610243565b005b82600a60006101000a81548173ffffffffffffffffffffffffffffffffffffffff021916908373ffffffffffffffffffffffffffffffffffffffff16021790555081600b9080519060200190610226929190610275565b5080600c908051906020019061023d929190610275565b50505050565b8160089080519060200190610259929190610275565b508060099080519060200190610270929190610275565b505050565b828054600181600116156101000203166002900490600052602060002090601f016020900481019282601f106102b657805160ff19168380011785556102e4565b828001600101855582156102e4579182015b828111156102e35782518255916020019190600101906102c8565b5b5090506102f191906102f5565b5090565b61031791905b808211156103135760008160009055506001016102fb565b5090565b905600a165627a7a7230582021614658f7a2ce33231117dfb48bc2dabac351bbd5e4123196fa17da3e4ff2440029",
  "source": "pragma solidity ^0.4.22;\n\n/* Author: Neeraj Kumar\n * \n * Being a public contract: This will host the following features:\n *  - launching the RFP\n *  - start and end date of accepting application (bids) \n *  - disclosure of bids only after the dead line of bidding is over  \n *  - \n*/\n\nimport \"./Utils.sol\";\n\n\ncontract RFP_TDoc_InvAuth is Utils {\n    string docCID;\n    string DocHash;\n    // bool state;\n  \n    function addTenderDoc(\n        string _docCID,\n        string _DocHash\n    ) {\n        docCID = _docCID;\n        DocHash = _DocHash;\n        // true\n    }\n\n    address authAddress;\n    string name;\n    string Address;\n    // bool state;\n\n    function addTenderInvitingAuth(\n        address _authAddress,\n        string _name,\n        string _Address\n    ) {\n        authAddress = _authAddress;\n        name = _name;\n        Address = _Address;\n        // true\n    }\n    \n}\n",
  "sourcePath": "/home/dev/Documents/conduentHackathon-safe/truffle/contracts/RFP_TDoc_InvAuth.sol",
  "compiler": {
    "name": "solc",
    "version": "0.4.25+commit.59dbf8f1.Emscripten.clang"
  },
  "schemaVersion": "2.0.2",
  "updatedAt": "2019-06-23T02:31:29.928Z"
}