{
  "contractName": "RFPBasic",
  "abi": [
    {
      "inputs": [],
      "payable": false,
      "stateMutability": "nonpayable",
      "type": "constructor"
    },
    {
      "constant": false,
      "inputs": [
        {
          "name": "_orgChain",
          "type": "string"
        },
        {
          "name": "_tenderRefNumber",
          "type": "string"
        },
        {
          "name": "_tenderID",
          "type": "string"
        },
        {
          "name": "_catagory",
          "type": "string"
        },
        {
          "name": "_paymentMode",
          "type": "string"
        },
        {
          "name": "_tenderType",
          "type": "string"
        }
      ],
      "name": "setRFPBasicDetails",
      "outputs": [],
      "payable": false,
      "stateMutability": "nonpayable",
      "type": "function"
    }
  ],
  "bytecode": "0x60806040526000805560018055600280556003805534801561002057600080fd5b50610370806100306000396000f300608060405260043610610041576000357c0100000000000000000000000000000000000000000000000000000000900463ffffffff1680639b280d7114610046575b600080fd5b34801561005257600080fd5b5061020b600480360381019080803590602001908201803590602001908080601f0160208091040260200160405190810160405280939291908181526020018383808284378201915050505050509192919290803590602001908201803590602001908080601f0160208091040260200160405190810160405280939291908181526020018383808284378201915050505050509192919290803590602001908201803590602001908080601f0160208091040260200160405190810160405280939291908181526020018383808284378201915050505050509192919290803590602001908201803590602001908080601f0160208091040260200160405190810160405280939291908181526020018383808284378201915050505050509192919290803590602001908201803590602001908080601f0160208091040260200160405190810160405280939291908181526020018383808284378201915050505050509192919290803590602001908201803590602001908080601f016020809104026020016040519081016040528093929190818152602001838380828437820191505050505050919291929050505061020d565b005b856009908051906020019061022392919061029f565b5084600a908051906020019061023a92919061029f565b5083600b908051906020019061025192919061029f565b5082600c908051906020019061026892919061029f565b5081600d908051906020019061027f92919061029f565b5080600e908051906020019061029692919061029f565b50505050505050565b828054600181600116156101000203166002900490600052602060002090601f016020900481019282601f106102e057805160ff191683800117855561030e565b8280016001018555821561030e579182015b8281111561030d5782518255916020019190600101906102f2565b5b50905061031b919061031f565b5090565b61034191905b8082111561033d576000816000905550600101610325565b5090565b905600a165627a7a723058207ecab9565d3580a6af014968fc1fb1bb62d1c614d6cb3105d9682e3c7874826d0029",
  "source": "pragma solidity ^0.4.22;\n\n/* Author: Neeraj Kumar\n * \n * Being a public contract: This will host the following features:\n *  - launching the RFP\n *  - start and end date of accepting application (bids) \n *  - disclosure of bids only after the dead line of bidding is over  \n *  - \n*/\n\nimport \"./Utils.sol\";\n\n\ncontract RFPBasic is Utils {\n    \n    // important to keep the owner private\n    address private owner;\n\n    string orgChain;\n    string tenderRefNumber;\n    string tenderID;\n    //string RefId;\n    string catagory;\n    string paymentMode;\n    string tenderType;\n\n    constructor () public {}\n\n    function setRFPBasicDetails(\n        string _orgChain,\n        string _tenderRefNumber,\n        string _tenderID,\n      //  string _RefId,\n        string _catagory,\n        string _paymentMode,\n        string _tenderType\n    ) \n    public\n    // modifier: should be allowed to only owner\n    {\n        orgChain = _orgChain;\n        tenderRefNumber = _tenderRefNumber;\n        tenderID = _tenderID;\n        //RefId = _RefId;\n        catagory = _catagory;\n        paymentMode = _paymentMode;\n        tenderType = _tenderType;\n    }\n}\n",
  "sourcePath": "/home/dev/Documents/conduentHackathon-safe/truffle/contracts/RFPBasic.sol",
  "compiler": {
    "name": "solc",
    "version": "0.4.25+commit.59dbf8f1.Emscripten.clang"
  },
  "schemaVersion": "2.0.2",
  "updatedAt": "2019-06-23T02:31:29.930Z"
}