{
  "contractName": "RFPCriticalDate",
  "abi": [
    {
      "inputs": [],
      "payable": false,
      "stateMutability": "nonpayable",
      "type": "constructor"
    },
    {
      "constant": false,
      "inputs": [
        {
          "name": "_bidOpeningdate",
          "type": "uint64"
        },
        {
          "name": "_bidRevealStartDate",
          "type": "uint64"
        },
        {
          "name": "_bidRevealEndDate",
          "type": "uint64"
        },
        {
          "name": "_votingStartDate",
          "type": "uint64"
        },
        {
          "name": "_votingEndDate",
          "type": "uint64"
        },
        {
          "name": "_bidSubmissionEndDate",
          "type": "uint64"
        },
        {
          "name": "_bidOpeningDate",
          "type": "uint64"
        }
      ],
      "name": "addCriticaldate",
      "outputs": [],
      "payable": false,
      "stateMutability": "nonpayable",
      "type": "function"
    }
  ],
  "bytecode": "0x60806040526000805560018055600280556003805534801561002057600080fd5b50610271806100306000396000f300608060405260043610610041576000357c0100000000000000000000000000000000000000000000000000000000900463ffffffff168063ae5b63ae14610046575b600080fd5b34801561005257600080fd5b506100f3600480360381019080803567ffffffffffffffff169060200190929190803567ffffffffffffffff169060200190929190803567ffffffffffffffff169060200190929190803567ffffffffffffffff169060200190929190803567ffffffffffffffff169060200190929190803567ffffffffffffffff169060200190929190803567ffffffffffffffff1690602001909291905050506100f5565b005b42600860006101000a81548167ffffffffffffffff021916908367ffffffffffffffff160217905550866008806101000a81548167ffffffffffffffff021916908367ffffffffffffffff16021790555085600860106101000a81548167ffffffffffffffff021916908367ffffffffffffffff16021790555084600860186101000a81548167ffffffffffffffff021916908367ffffffffffffffff16021790555083600960006101000a81548167ffffffffffffffff021916908367ffffffffffffffff16021790555082600960086101000a81548167ffffffffffffffff021916908367ffffffffffffffff16021790555081600960106101000a81548167ffffffffffffffff021916908367ffffffffffffffff16021790555080600960186101000a81548167ffffffffffffffff021916908367ffffffffffffffff160217905550505050505050505600a165627a7a7230582061f13d82c50f2df1b5632eaea9f8eb2e2eeaddf156eeb28bda4ec50bb11830230029",
  "source": "pragma solidity ^0.4.22;\n\n/* Author: Neeraj Kumar\n * \n * Being a public contract: This will host the following features:\n *  - launching the RFP\n *  - start and end date of accepting application (bids) \n *  - disclosure of bids only after the dead line of bidding is over  \n *  - \n*/\n\nimport \"./Utils.sol\";\n\n\ncontract RFPCriticalDate is Utils {\n    \n    uint64 publishedDate;\n    uint64 bidOpeningdate;\n\n    uint64 bidRevealStartDate;\n    uint64 bidRevealEndDate;\n    uint64 votingStartDate;\n    uint64 votingEndDate;\n    // uint64 bidSubmissionStartDate;\n    uint64 bidSubmissionEndDate;\n    uint64 bidOpeningDate;\n    // uint64 uintclarificationDate;\n    // bool state;\n\n    constructor () public {}\n    \n    function addCriticaldate(\n        uint64 _bidOpeningdate,\n\n        uint64 _bidRevealStartDate,\n        uint64 _bidRevealEndDate,\n        uint64 _votingStartDate,\n        uint64 _votingEndDate,\n        // uint64 _bidSubmissionStartDate,\n        uint64 _bidSubmissionEndDate,\n        uint64 _bidOpeningDate\n        // uint64 _uintclarificationDate\n        // bool status\n    )\n    public\n    // modfier: check the owner\n    {\n        publishedDate = uint64(now);\n        bidOpeningdate = _bidOpeningdate;\n        \n        bidRevealStartDate = _bidRevealStartDate;\n        bidRevealEndDate = _bidRevealEndDate;\n        votingStartDate = _votingStartDate;\n        votingEndDate = _votingEndDate;\n        //_bidSubmissionStartDate,\n        bidSubmissionEndDate = _bidSubmissionEndDate;\n        bidOpeningDate = _bidOpeningDate;\n        // _uintclarificationDate,\n        // true\n    }\n}\n",
  "sourcePath": "/home/dev/Documents/conduentHackathon-safe/truffle/contracts/RFPCriticalDate.sol",
  "compiler": {
    "name": "solc",
    "version": "0.4.25+commit.59dbf8f1.Emscripten.clang"
  },
  "schemaVersion": "2.0.2",
  "updatedAt": "2019-06-23T02:31:29.937Z"
}