{
  "contractName": "RFPEMD_Fee",
  "abi": [
    {
      "inputs": [],
      "payable": false,
      "stateMutability": "nonpayable",
      "type": "constructor"
    },
    {
      "constant": false,
      "inputs": [
        {
          "name": "_amount",
          "type": "uint256"
        },
        {
          "name": "_payableTo",
          "type": "string"
        },
        {
          "name": "_payableAt",
          "type": "string"
        }
      ],
      "name": "addEMDDetails",
      "outputs": [],
      "payable": false,
      "stateMutability": "nonpayable",
      "type": "function"
    },
    {
      "constant": false,
      "inputs": [
        {
          "name": "_feePayableTo",
          "type": "string"
        },
        {
          "name": "_feePayableAt",
          "type": "string"
        },
        {
          "name": "_payableFee",
          "type": "uint256"
        }
      ],
      "name": "addFeeDetails",
      "outputs": [],
      "payable": false,
      "stateMutability": "nonpayable",
      "type": "function"
    }
  ],
  "bytecode": "0x60806040526000805560018055600280556003805534801561002057600080fd5b50610308806100306000396000f30060806040526004361061004c576000357c0100000000000000000000000000000000000000000000000000000000900463ffffffff1680635a8243ce14610051578063622ed7ae1461010a575b600080fd5b34801561005d57600080fd5b5061010860048036038101908080359060200190929190803590602001908201803590602001908080601f0160208091040260200160405190810160405280939291908181526020018383808284378201915050505050509192919290803590602001908201803590602001908080601f01602080910402602001604051908101604052809392919081815260200183838082843782019150505050505091929192905050506101c3565b005b34801561011657600080fd5b506101c1600480360381019080803590602001908201803590602001908080601f0160208091040260200160405190810160405280939291908181526020018383808284378201915050505050509192919290803590602001908201803590602001908080601f0160208091040260200160405190810160405280939291908181526020018383808284378201915050505050509192919290803590602001909291905050506101fd565b005b82600a8190555081600890805190602001906101e0929190610237565b5080600990805190602001906101f7929190610237565b50505050565b82600b9080519060200190610213929190610237565b5081600c908051906020019061022a929190610237565b5080600d81905550505050565b828054600181600116156101000203166002900490600052602060002090601f016020900481019282601f1061027857805160ff19168380011785556102a6565b828001600101855582156102a6579182015b828111156102a557825182559160200191906001019061028a565b5b5090506102b391906102b7565b5090565b6102d991905b808211156102d55760008160009055506001016102bd565b5090565b905600a165627a7a723058202675e474be559c40ff4b7518f1886f7c476b2be414f28228b816d255b951efff0029",
  "source": "pragma solidity ^0.4.22;\n\n/* Author: Neeraj Kumar\n * \n * Being a public contract: This will host the following features:\n *  - launching the RFP\n *  - start and end date of accepting application (bids) \n *  - disclosure of bids only after the dead line of bidding is over  \n *  - \n*/\n\nimport \"./Utils.sol\";\n\n\ncontract RFPEMD_Fee is Utils {\n    \n    string payableTo;\n    string payableAt;\n    uint amount;\n    // bool state;\n\n    constructor(){}\n    \n    function addEMDDetails(\n        uint    _amount,\n        string _payableTo,\n        string memory  _payableAt\n    )\n    public \n    // modifier\n    {\n        amount = _amount;\n        payableTo = _payableTo;\n        payableAt = _payableAt;\n        // true\n    }\n\n    string feePayableTo;\n    string feePayableAt;\n    uint payableFee;\n    // bool state;\n\n    function addFeeDetails(\n        string _feePayableTo,\n        string _feePayableAt,\n        uint _payableFee\n    )\n    public \n    //modifier\n    {\n        feePayableTo = _feePayableTo;\n        feePayableAt = _feePayableAt;\n        payableFee = _payableFee;\n        // true\n    }\n\n    \n}\n",
  "sourcePath": "/home/dev/Documents/conduentHackathon-safe/truffle/contracts/RFPEMD_Fee.sol",
  "compiler": {
    "name": "solc",
    "version": "0.4.25+commit.59dbf8f1.Emscripten.clang"
  },
  "schemaVersion": "2.0.2",
  "updatedAt": "2019-06-23T02:31:29.932Z"
}