{
  "contractName": "RFPWorkItem",
  "abi": [
    {
      "inputs": [],
      "payable": false,
      "stateMutability": "nonpayable",
      "type": "constructor"
    },
    {
      "constant": false,
      "inputs": [
        {
          "name": "_title",
          "type": "string"
        },
        {
          "name": "_tenderValue",
          "type": "uint256"
        },
        {
          "name": "_category",
          "type": "string"
        },
        {
          "name": "_bidValidity",
          "type": "string"
        },
        {
          "name": "_periodOfWork",
          "type": "string"
        }
      ],
      "name": "addWorkItemDetails",
      "outputs": [],
      "payable": false,
      "stateMutability": "nonpayable",
      "type": "function"
    }
  ],
  "bytecode": "0x60806040526000805560018055600280556003805534801561002057600080fd5b506102c6806100306000396000f300608060405260043610610041576000357c0100000000000000000000000000000000000000000000000000000000900463ffffffff168063fcd57bd014610046575b600080fd5b34801561005257600080fd5b50610189600480360381019080803590602001908201803590602001908080601f016020809104026020016040519081016040528093929190818152602001838380828437820191505050505050919291929080359060200190929190803590602001908201803590602001908080601f0160208091040260200160405190810160405280939291908181526020018383808284378201915050505050509192919290803590602001908201803590602001908080601f0160208091040260200160405190810160405280939291908181526020018383808284378201915050505050509192919290803590602001908201803590602001908080601f016020809104026020016040519081016040528093929190818152602001838380828437820191505050505050919291929050505061018b565b005b84600890805190602001906101a19291906101f5565b508360098190555082600a90805190602001906101bf9291906101f5565b5081600b90805190602001906101d69291906101f5565b5080600c90805190602001906101ed9291906101f5565b505050505050565b828054600181600116156101000203166002900490600052602060002090601f016020900481019282601f1061023657805160ff1916838001178555610264565b82800160010185558215610264579182015b82811115610263578251825591602001919060010190610248565b5b5090506102719190610275565b5090565b61029791905b8082111561029357600081600090555060010161027b565b5090565b905600a165627a7a72305820b791e641b1d2ad9ca25a79e4a3a5249777cec70a5513ee1758bbaa2a0cd126e50029",
  "source": "pragma solidity ^0.4.22;\n\n/* Author: Neeraj Kumar\n * \n * Being a public contract: This will host the following features:\n *  - launching the RFP\n *  - start and end date of accepting application (bids) \n *  - disclosure of bids only after the dead line of bidding is over  \n *  - \n*/\n\nimport \"./Utils.sol\";\n\ncontract RFPWorkItem is Utils {\n    string title;\n    uint tenderValue;\n    string category;\n    string bidValidity;\n    string periodOfWork;\n    //string workDescription;\n    // bool state;\n\n    constructor () public {}\n\n    function addWorkItemDetails(\n        string _title,\n        uint    _tenderValue,\n        string _category,\n        string _bidValidity,\n       string _periodOfWork\n       //string _workDescription\n    ) \n    public \n    //modifier\n    {\n        title =_title;\n        tenderValue = _tenderValue;\n       category = _category;\n       bidValidity = _bidValidity;\n       periodOfWork = _periodOfWork;\n       // workDescription = _workDescription;\n        //return true;\n    }\n      \n}\n",
  "sourcePath": "/home/dev/Documents/conduentHackathon-safe/truffle/contracts/RFPWorkItem.sol",
  "compiler": {
    "name": "solc",
    "version": "0.4.25+commit.59dbf8f1.Emscripten.clang"
  },
  "schemaVersion": "2.0.2",
  "updatedAt": "2019-06-23T02:31:29.929Z"
}