{
  "contractName": "Users",
  "abi": [
    {
      "inputs": [],
      "payable": false,
      "stateMutability": "nonpayable",
      "type": "constructor"
    },
    {
      "constant": false,
      "inputs": [],
      "name": "registerAsBidder",
      "outputs": [],
      "payable": false,
      "stateMutability": "nonpayable",
      "type": "function"
    },
    {
      "constant": true,
      "inputs": [
        {
          "name": "_userAddress",
          "type": "address"
        },
        {
          "name": "_role",
          "type": "uint8"
        }
      ],
      "name": "getUserStateByAddress",
      "outputs": [
        {
          "name": "",
          "type": "address"
        },
        {
          "name": "",
          "type": "uint8"
        },
        {
          "name": "",
          "type": "uint256"
        }
      ],
      "payable": false,
      "stateMutability": "view",
      "type": "function"
    },
    {
      "constant": false,
      "inputs": [
        {
          "name": "_userAddress",
          "type": "address"
        },
        {
          "name": "_KYCAPplicationID",
          "type": "string"
        }
      ],
      "name": "AddKYCApplication",
      "outputs": [],
      "payable": false,
      "stateMutability": "nonpayable",
      "type": "function"
    }
  ],
  "bytecode": "0x60806040526000805560018055600280556003805534801561002057600080fd5b506107d3806100306000396000f300608060405260043610610057576000357c0100000000000000000000000000000000000000000000000000000000900463ffffffff168063754809281461005c578063fd5beb6f146100e5578063fe223e6a146100fc575b600080fd5b34801561006857600080fd5b506100e3600480360381019080803573ffffffffffffffffffffffffffffffffffffffff169060200190929190803590602001908201803590602001908080601f01602080910402602001604051908101604052809392919081815260200183838082843782019150505050505091929192905050506101a0565b005b3480156100f157600080fd5b506100fa610229565b005b34801561010857600080fd5b5061014a600480360381019080803573ffffffffffffffffffffffffffffffffffffffff169060200190929190803560ff16906020019092919050505061039f565b604051808473ffffffffffffffffffffffffffffffffffffffff1673ffffffffffffffffffffffffffffffffffffffff1681526020018360ff1660ff168152602001828152602001935050505060405180910390f35b6000600960008473ffffffffffffffffffffffffffffffffffffffff1673ffffffffffffffffffffffffffffffffffffffff168152602001908152602001600020905080600101829080600181540180825580915050906001820390600052602060002001600090919290919091509080519060200190610222929190610573565b5050505050565b6102316105f3565b33816000019073ffffffffffffffffffffffffffffffffffffffff16908173ffffffffffffffffffffffffffffffffffffffff1681525050600c816020019060ff16908160ff168152505080600960003373ffffffffffffffffffffffffffffffffffffffff1673ffffffffffffffffffffffffffffffffffffffff16815260200190815260200160002060008201518160000160006101000a81548173ffffffffffffffffffffffffffffffffffffffff021916908373ffffffffffffffffffffffffffffffffffffffff16021790555060208201518160000160146101000a81548160ff021916908360ff160217905550604082015181600101908051906020019061034092919061062e565b50905050600c8060003373ffffffffffffffffffffffffffffffffffffffff1673ffffffffffffffffffffffffffffffffffffffff16815260200190815260200160002060006101000a81548160ff021916908360ff16021790555050565b60008060006103ac6105f3565b600960008773ffffffffffffffffffffffffffffffffffffffff1673ffffffffffffffffffffffffffffffffffffffff168152602001908152602001600020606060405190810160405290816000820160009054906101000a900473ffffffffffffffffffffffffffffffffffffffff1673ffffffffffffffffffffffffffffffffffffffff1673ffffffffffffffffffffffffffffffffffffffff1681526020016000820160149054906101000a900460ff1660ff1660ff16815260200160018201805480602002602001604051908101604052809291908181526020016000905b8282101561054b578382906000526020600020018054600181600116156101000203166002900480601f0160208091040260200160405190810160405280929190818152602001828054600181600116156101000203166002900480156105375780601f1061050c57610100808354040283529160200191610537565b820191906000526020600020905b81548152906001019060200180831161051a57829003601f168201915b50505050508152602001906001019061048f565b5050505081525050905080600001518160200151826040015151935093509350509250925092565b828054600181600116156101000203166002900490600052602060002090601f016020900481019282601f106105b457805160ff19168380011785556105e2565b828001600101855582156105e2579182015b828111156105e15782518255916020019190600101906105c6565b5b5090506105ef919061068e565b5090565b606060405190810160405280600073ffffffffffffffffffffffffffffffffffffffff168152602001600060ff168152602001606081525090565b82805482825590600052602060002090810192821561067d579160200282015b8281111561067c57825182908051906020019061066c9291906106b3565b509160200191906001019061064e565b5b50905061068a9190610733565b5090565b6106b091905b808211156106ac576000816000905550600101610694565b5090565b90565b828054600181600116156101000203166002900490600052602060002090601f016020900481019282601f106106f457805160ff1916838001178555610722565b82800160010185558215610722579182015b82811115610721578251825591602001919060010190610706565b5b50905061072f919061068e565b5090565b61075c91905b80821115610758576000818161074f919061075f565b50600101610739565b5090565b90565b50805460018160011615610100020316600290046000825580601f1061078557506107a4565b601f0160209004906000526020600020908101906107a3919061068e565b5b505600a165627a7a72305820061d0c9e3db9fc22bdd33460ea764c1b4cda3ca74f94c58a9684ac6ac8c2964e0029",
  "source": "pragma solidity ^0.4.22;\r\n\r\n/* Author: Neeraj Kumar\r\n * \r\n * This will host the following features:\r\n *  - KYC  \r\n *  - \r\n*/\r\nimport \"./Utils.sol\";\r\n\r\n\r\ncontract Users is Utils {\r\n    \r\n    // We can also add later the the data field and algorith to maintain the auditor' reputation \r\n    address private owner;\r\n    \r\n    struct UserState {\r\n        address userAddress;\r\n        uint8   role; // can be bidder, auditor, reviewer, merchants (org asking a KYC)\r\n        string[] KYCapplications;\r\n    }\r\n    \r\n    mapping(address => UserState) userStates;\r\n    \r\n    mapping(uint8 => string) roleStrings;\r\n    \r\n    \r\n    // once a bid is placed we register the bidder with the RFP \r\n    // we also will check if that user is an auditor/committeeMember than not allow bidding \r\n    mapping (string => mapping(address => UserState)) bidders;\r\n    mapping (address => uint8) bidderExists;\r\n    \r\n    mapping (string => mapping(address => UserState)) acceptedAuditors;\r\n    \r\n    constructor () public {\r\n        // roleStrings[GUEST]          = \"GUEST\";\r\n        // roleStrings[USER_OR_BIDDER] = \"USER OR BIDDER\";\r\n        // roleStrings[AUDITOR]        = \"AUDITOR\";\r\n        // roleStrings[COMMITEE_MEMBER]= \"COMMITEE MEMBER\";\r\n    }\r\n\r\n    function registerAsBidder() \r\n    public \r\n    // nietherAuditorNorComMember(msg.sender)\r\n    // modifier: not already registered\r\n    {\r\n        UserState memory uState;\r\n        uState.userAddress = msg.sender;\r\n        uState.role = USER_OR_BIDDER;\r\n        \r\n        userStates[msg.sender] = uState;\r\n        bidderExists[msg.sender] = USER_OR_BIDDER;\r\n    }\r\n    \r\n    \r\n    function getUserStateByAddress(address _userAddress, uint8 _role) \r\n    public \r\n    view \r\n    returns (address, uint8, uint)\r\n    {\r\n        UserState memory us = userStates[_userAddress];\r\n        return (us.userAddress, us.role, us.KYCapplications.length);\r\n    }\r\n    \r\n    function AddKYCApplication(address _userAddress, string _KYCAPplicationID) \r\n    public\r\n    //modifier: make sure that only KYCApplicationsContract is able to call this\r\n    // modifier: make sure that user is registered and the KYCApplicationID is valid\r\n    {\r\n        UserState storage us = userStates[_userAddress];\r\n        us.KYCapplications.push(_KYCAPplicationID);\r\n    }\r\n    \r\n}",
  "sourcePath": "/home/dev/Documents/conduentHackathon-safe/truffle/contracts/Users.sol",
  "compiler": {
    "name": "solc",
    "version": "0.4.25+commit.59dbf8f1.Emscripten.clang"
  },
  "schemaVersion": "2.0.2",
  "updatedAt": "2019-06-23T02:31:29.946Z"
}