{
  "contractName": "VerifyingAuthorities",
  "abi": [
    {
      "constant": false,
      "inputs": [
        {
          "name": "_name",
          "type": "string"
        },
        {
          "name": "_authorityID",
          "type": "string"
        },
        {
          "name": "_authAddress",
          "type": "address"
        },
        {
          "name": "_verifierAddress",
          "type": "address"
        },
        {
          "name": "_validThroughDate",
          "type": "uint64"
        }
      ],
      "name": "addAVerifyingAuthority",
      "outputs": [],
      "payable": false,
      "stateMutability": "nonpayable",
      "type": "function"
    },
    {
      "constant": false,
      "inputs": [
        {
          "name": "_verifierAddress",
          "type": "address"
        },
        {
          "name": "_validThroughDate",
          "type": "uint64"
        },
        {
          "name": "_authorityID",
          "type": "string"
        }
      ],
      "name": "addAVerifierToAuthority",
      "outputs": [],
      "payable": false,
      "stateMutability": "nonpayable",
      "type": "function"
    }
  ],
  "bytecode": "0x608060405234801561001057600080fd5b50610dbe806100206000396000f30060806040526004361061004c576000357c0100000000000000000000000000000000000000000000000000000000900463ffffffff168063ae6c6c7b14610051578063c9300f9a14610154575b600080fd5b34801561005d57600080fd5b50610152600480360381019080803590602001908201803590602001908080601f0160208091040260200160405190810160405280939291908181526020018383808284378201915050505050509192919290803590602001908201803590602001908080601f0160208091040260200160405190810160405280939291908181526020018383808284378201915050505050509192919290803573ffffffffffffffffffffffffffffffffffffffff169060200190929190803573ffffffffffffffffffffffffffffffffffffffff169060200190929190803567ffffffffffffffff1690602001909291905050506101f1565b005b34801561016057600080fd5b506101ef600480360381019080803573ffffffffffffffffffffffffffffffffffffffff169060200190929190803567ffffffffffffffff169060200190929190803590602001908201803590602001908080601f0160208091040260200160405190810160405280939291908181526020018383808284378201915050505050509192919290505050610724565b005b6101f9610be3565b610201610c22565b816002876040518082805190602001908083835b60208310151561023a5780518252602082019150602081019050602083039250610215565b6001836020036101000a03801982511681845116808217855250505050505090500191505090815260200160405180910390206000820151816000019080519060200190610289929190610c6d565b5060208201518160010190805190602001906102a6929190610c6d565b506040820151816002015560608201518160030160006101000a81548173ffffffffffffffffffffffffffffffffffffffff021916908373ffffffffffffffffffffffffffffffffffffffff1602179055509050506080604051908101604052808573ffffffffffffffffffffffffffffffffffffffff1681526020016001151581526020018467ffffffffffffffff168152602001878152509050866002876040518082805190602001908083835b60208310151561037b5780518252602082019150602081019050602083039250610356565b6001836020036101000a038019825116818451168082178552505050505050905001915050908152602001604051809103902060000190805190602001906103c4929190610ced565b50856002876040518082805190602001908083835b6020831015156103fe57805182526020820191506020810190506020830392506103d9565b6001836020036101000a03801982511681845116808217855250505050505090500191505090815260200160405180910390206001019080519060200190610447929190610ced565b50846002876040518082805190602001908083835b602083101515610481578051825260208201915060208101905060208303925061045c565b6001836020036101000a038019825116818451168082178552505050505050905001915050908152602001604051809103902060030160006101000a81548173ffffffffffffffffffffffffffffffffffffffff021916908373ffffffffffffffffffffffffffffffffffffffff16021790555060016002876040518082805190602001908083835b60208310151561052f578051825260208201915060208101905060208303925061050a565b6001836020036101000a038019825116818451168082178552505050505050905001915050908152602001604051809103902060040160008673ffffffffffffffffffffffffffffffffffffffff1673ffffffffffffffffffffffffffffffffffffffff16815260200190815260200160002060006101000a81548160ff021916908315150217905550806002876040518082805190602001908083835b6020831015156105f257805182526020820191506020810190506020830392506105cd565b6001836020036101000a038019825116818451168082178552505050505050905001915050908152602001604051809103902060050160008673ffffffffffffffffffffffffffffffffffffffff1673ffffffffffffffffffffffffffffffffffffffff16815260200190815260200160002060008201518160000160006101000a81548173ffffffffffffffffffffffffffffffffffffffff021916908373ffffffffffffffffffffffffffffffffffffffff16021790555060208201518160000160146101000a81548160ff02191690831515021790555060408201518160000160156101000a81548167ffffffffffffffff021916908367ffffffffffffffff1602179055506060820151816001019080519060200190610717929190610c6d565b5090505050505050505050565b61072c610be3565b610734610c22565b6002836040518082805190602001908083835b60208310151561076c5780518252602082019150602081019050602083039250610747565b6001836020036101000a038019825116818451168082178552505050505050905001915050908152602001604051809103902060806040519081016040529081600082018054600181600116156101000203166002900480601f0160208091040260200160405190810160405280929190818152602001828054600181600116156101000203166002900480156108445780601f1061081957610100808354040283529160200191610844565b820191906000526020600020905b81548152906001019060200180831161082757829003601f168201915b50505050508152602001600182018054600181600116156101000203166002900480601f0160208091040260200160405190810160405280929190818152602001828054600181600116156101000203166002900480156108e65780601f106108bb576101008083540402835291602001916108e6565b820191906000526020600020905b8154815290600101906020018083116108c957829003601f168201915b50505050508152602001600282015481526020016003820160009054906101000a900473ffffffffffffffffffffffffffffffffffffffff1673ffffffffffffffffffffffffffffffffffffffff1673ffffffffffffffffffffffffffffffffffffffff168152505091506080604051908101604052808673ffffffffffffffffffffffffffffffffffffffff1681526020016001151581526020018567ffffffffffffffff1681526020018481525090506109a282826109a9565b5050505050565b6001600283602001516040518082805190602001908083835b6020831015156109e757805182526020820191506020810190506020830392506109c2565b6001836020036101000a03801982511681845116808217855250505050505090500191505090815260200160405180910390206004016000836000015173ffffffffffffffffffffffffffffffffffffffff1673ffffffffffffffffffffffffffffffffffffffff16815260200190815260200160002060006101000a81548160ff02191690831515021790555080600283602001516040518082805190602001908083835b602083101515610ab25780518252602082019150602081019050602083039250610a8d565b6001836020036101000a03801982511681845116808217855250505050505090500191505090815260200160405180910390206005016000836000015173ffffffffffffffffffffffffffffffffffffffff1673ffffffffffffffffffffffffffffffffffffffff16815260200190815260200160002060008201518160000160006101000a81548173ffffffffffffffffffffffffffffffffffffffff021916908373ffffffffffffffffffffffffffffffffffffffff16021790555060208201518160000160146101000a81548160ff02191690831515021790555060408201518160000160156101000a81548167ffffffffffffffff021916908367ffffffffffffffff1602179055506060820151816001019080519060200190610bdb929190610c6d565b509050505050565b608060405190810160405280606081526020016060815260200160008152602001600073ffffffffffffffffffffffffffffffffffffffff1681525090565b608060405190810160405280600073ffffffffffffffffffffffffffffffffffffffff168152602001600015158152602001600067ffffffffffffffff168152602001606081525090565b828054600181600116156101000203166002900490600052602060002090601f016020900481019282601f10610cae57805160ff1916838001178555610cdc565b82800160010185558215610cdc579182015b82811115610cdb578251825591602001919060010190610cc0565b5b509050610ce99190610d6d565b5090565b828054600181600116156101000203166002900490600052602060002090601f016020900481019282601f10610d2e57805160ff1916838001178555610d5c565b82800160010185558215610d5c579182015b82811115610d5b578251825591602001919060010190610d40565b5b509050610d699190610d6d565b5090565b610d8f91905b80821115610d8b576000816000905550600101610d73565b5090565b905600a165627a7a72305820223a034715f98f0044cd83a28da35cadf459f72c418018e1ef2842b105029f490029",
  "source": "pragma solidity ^0.4.22;\r\n\r\n/* Author: Neeraj Kumar\r\n * \r\n * private contract: This will host the following features:\r\n *  - To represent a registered Verifying Authorities\r\n *  - \r\n*/\r\n\r\ncontract VerifyingAuthorities {\r\n    \r\n    address private owner;\r\n    \r\n    bool private constant ACTIVE = true; \r\n    \r\n    struct Verifier {\r\n        address add;\r\n        bool isActive;\r\n        uint64 validThroughDate;\r\n        string authorityID;\r\n    }\r\n    \r\n    struct Authority {\r\n        // MD5 of all lower name\r\n        string name;\r\n        // MD5 of the ethereum address of the generator of authority\r\n        string authorityID;\r\n        uint authorityIndex;\r\n        \r\n        address authAddress;\r\n        mapping(address => bool) isAuthorizedVerifiers;\r\n        mapping(address => Verifier) authorizedVerifiers;\r\n    }\r\n    \r\n    Authority[] authBundle;\r\n    // mapping authorityID with the authority\r\n    mapping(string => Authority) authorities;\r\n    \r\n    function addAVerifyingAuthority(\r\n        string _name,\r\n        string _authorityID,\r\n        address _authAddress,\r\n        address _verifierAddress,\r\n        uint64 _validThroughDate\r\n    ) \r\n    public {\r\n        Authority memory auth;\r\n        authorities[_authorityID] = auth;\r\n        \r\n        Verifier memory verif = Verifier(_verifierAddress, ACTIVE, _validThroughDate, _authorityID);\r\n        \r\n        authorities[_authorityID].name = _name;\r\n        authorities[_authorityID].authorityID = _authorityID;\r\n        authorities[_authorityID].authAddress = _authAddress;\r\n        authorities[_authorityID].isAuthorizedVerifiers[_verifierAddress]= ACTIVE;\r\n        authorities[_authorityID].authorizedVerifiers[_verifierAddress]= verif;\r\n    }\r\n    \r\n    /*\r\n    *\r\n    */\r\n    function _addAVerifierToAuthority(\r\n        Authority memory auth,\r\n        Verifier memory verif\r\n    )\r\n    private {\r\n        authorities[auth.authorityID].isAuthorizedVerifiers[verif.add] = ACTIVE;\r\n        authorities[auth.authorityID].authorizedVerifiers[verif.add] = verif;\r\n    }\r\n    \r\n    /*\r\n    *\r\n    */\r\n    function addAVerifierToAuthority(\r\n        address _verifierAddress,\r\n        uint64 _validThroughDate,\r\n        // must check through the modifier that the autorityID already exists\r\n        string _authorityID\r\n    ) \r\n    public {\r\n        Authority memory auth = authorities[_authorityID];\r\n        // creating an active verifier\r\n        Verifier memory verif = Verifier(_verifierAddress, ACTIVE, _validThroughDate, _authorityID); \r\n        _addAVerifierToAuthority(auth, verif);\r\n    }\r\n}",
  "sourcePath": "/home/dev/Documents/conduentHackathon-safe/truffle/contracts/VerifyingAuthorities.sol",
  "compiler": {
    "name": "solc",
    "version": "0.4.25+commit.59dbf8f1.Emscripten.clang"
  },
  "schemaVersion": "2.0.2",
  "updatedAt": "2019-06-23T02:24:27.065Z"
}